:020000040800F2
:100000001007002035020008E5180008DD18000878
:10001000E11800082D040008151900080000000070
:10002000000000000000000000000000ED180008C3
:100030003104000800000000E9180008F118000869
:100040004F0200084F0200084F0200084F0200084C
:100050004F0200084F0200084F0200084F0200083C
:100060004F0200084F0200084F0200084F0200082C
:100070004F0200084F0200084F0200084F0200081C
:100080004F0200084F0200084F0200080000000065
:100090000000000000000000000000004F02000807
:1000A0004F0200084F0200084F0200084F020008EC
:1000B0004F020008091900084F0200084F0200080B
:1000C0004F0200084F0200084F0200084F020008CC
:1000D0004F0200084F0200084F0200080000000015
:1000E0004F0200084F0200084F0200080000000005
:1000F0000000000000000000000000004F020008A7
:10010000000000004F0200084F0200084F020008E4
:1001100000000000000000000000000000000000DF
:100120004F0200084F0200084F0200084F0200086B
:100130004F02000800000000000000000000000066
:100140000000000000000000000000004F02000856
:100150004F0200084F0200084F0200084F0200083B
:100160004F0200084F0200080000000000000000DD
:10017000000000000000000000000000000000007F
:10018000000000004F020008000000000000000016
:100190004F02000800F002F800F03CF80AA090E8D6
:1001A000000C82448344AAF10107DA4501D100F032
:1001B00031F8AFF2090EBAE80F0013F0010F18BFC3
:1001C000FB1A43F00103184774200000942000003C
:1001D000103A24BF78C878C1FAD8520724BF30C873
:1001E00030C144BF04680C60704700000023002445
:1001F00000250026103A28BF78C1FBD8520728BF37
:1002000030C148BF0B6070471FB501F0FDFF1FBD37
:1002100010B510BD00F0D0F81146FFF7F5FF01F062
:100220007BFB00F0EEF803B4FFF7F2FF03BC00F035
:10023000F5F800000948804709480047FEE7FEE757
:10024000FEE7FEE7FEE7FEE7FEE7FEE7FEE7FEE786
:1002500004480549054A064B70470000F518000898
:100260009501000810010020100700201003002055
:100270001003002053EA020C00F069802DE9F04BD6
:100280004FF00006002B1FBFB3FA83F503FA05F405
:1002900024FA05F65E4012BF1643B2FA82F502FA5E
:1002A00005F4C5F120051EBF22FA05FC44EA0C0442
:1002B000203556EA044C4FEA144418BF641C4FF032
:1002C00000084FF00009904271EB030C39D300296C
:1002D00019BFB1FA81F701FA07F6B0FA80F700FA10
:1002E00007F6C7F120071EBF20FA07FC46EA0C06F6
:1002F0002037B6FBF4FCA7EB0507103F07F01F0BF8
:10030000CBF120062CFA06F60CFA0BFB44BFB346E1
:100310000026202FA4BF5E464FF0000B5BEA060CC0
:1003200008BF4FF0010B19EB0B0948EB0608ABFBBC
:10033000027C06FB02CC0BFB03CCC01B71EB0C0157
:10034000C1E70B46024641464846BDE8F08B13B56F
:10035000084318BF4FF0FF300146AFF30080BDE8FF
:100360001C4070474FF0000200B513469446964675
:10037000203922BFA0E80C50A0E80C50B1F12001B8
:10038000BFF4F7AF090728BFA0E80C5048BF0CC066
:100390005DF804EB890028BF40F8042B08BF7047C4
:1003A00048BF20F8022B11F0804F18BF00F8012B36
:1003B0007047704770477047754600F02BF8AE469F
:1003C00005006946534620F00700854618B020B561
:1003D000FFF73EFFBDE820404FF000064FF000075A
:1003E0004FF000084FF0000BAC46ACE8C009ACE899
:1003F000C009ACE8C009ACE8C00921F007018D468E
:10040000704710B50446AFF300802046BDE81040A9
:10041000FFF709BF0048704710000020014918206D
:10042000ABBEFEE72600020070470000FEE70000BA
:100430007047000070B581B00022009290F83C2017
:10044000012A03D10221084601B070BDD1F800E0B5
:100450000122BEF10A0F80F83C200BD31FFA8EF266
:100460005200066812FA8EF2A2F11E0306F10C0287
:1004700005E000BF06680EEB4E0306F110024FF0D8
:10048000070C15680CFA03F4A54315608D68146811
:1004900005FA03F3234313604968062906D801EBE4
:1004A0008101053906F134020AE000BF0C2901EB95
:1004B000810187BF413906F12C02233906F1300250
:1004C0001F2314688B4024EA030342F2043C1360A8
:1004D000C4F2010C1FFA8EF3146803FA01F1ACF5B3
:1004E000417321439E4211603ED1BEF1120F07D1EC
:1004F000DCF8001041F48001CCF8001034E000BFBB
:100500002EF0010110292FD1DCF80010BEF1100FE0
:1005100041F40001CCF8001026D140F20801C2F2EB
:10052000000109684DF68362C4F21B32A1FB02127E
:10053000910C01EB8101490000910099A1B1009952
:1005400001390091009979B1009901390091009920
:1005500051B1009901390091009929B100990139EF
:10056000009100990029EAD1002180F83C1008464A
:1005700001B070BD0068C06C70470000002804BF67
:100580000120704710B50446006C00283ED0206C56
:10059000C00645D4206C41F202118843023042F279
:1005A00004312064C4F20101086820F4403008607E
:1005B0000A6894E809101A43D4F810E00A60416808
:1005C000012321F4807141604168C0F6007341EA63
:1005D0000E214160416821F040714160416841EA6B
:1005E0000C014160816821F400618160E1688268EA
:1005F00011438160A16A8268994222F07062826030
:10060000826813D122F0405119E000BF204600F06B
:1006100065F80020606484F83C00206CC006B9D501
:100620000120002184F83C1010BD00BF11438160FF
:10063000816821F040518160E16A826811438160E4
:10064000816821F0020181608168227E94F8203067
:1006500041EA42018160416883B141F40061416037
:1006600041684EF2000221F460414160616ACFF6B8
:10067000FF72436802EB4131194301E021F400614C
:100680004160C16A40F2000C21F47001C162E2696C
:100690006169CFF6F07CC36A0CEB02521A43C26266
:1006A000826822F40072826094F83020836843EA02
:1006B00042228260826822F480628260826842EA1A
:1006C0008121816000206064216C012262F30101BC
:1006D0002164002184F83C1010BD000080B586B074
:1006E00042F200010068C4F2010100228842059232
:1006F000049201D006B080BD43F630000092C4F2EF
:100700000200436943F480734361436903F48073D7
:100710000093009B0092036843F0010303600068AC
:1007200000F0010000900098802001900320CDE9A6
:10073000020201F5604001A900F034F906B080BD65
:1007400070B5044600680D468268520544BF806853
:100750005FEAC05038D400F009FA21680A689207AD
:1007600049D40646681C3CD0DDB90868800721D50D
:10077000086880073FD4086880071BD50868800791
:1007800039D40868800715D50868800733D408680D
:1007900080070FD508688007E7D52CE00868800738
:1007A00029D400F0E3F9801B2168A842F6D9086833
:1007B0008007F3D4206C40F004002064002084F80B
:1007C0003C00032070BD00BF206C40F0200020647E
:1007D000002084F83C00012070BD00BF086880073D
:1007E00009D40868800706D4086880075CBF0868D9
:1007F0005FEA8070F2D56FF012000860206C40F460
:1008000000702064886810F0405F01D1207E08B13C
:10081000002070BDC86A10F4700F02D088684005CF
:10082000F6D4206C20F480702064206CC004EFD4D7
:10083000206C40F001002064002070BD10B581B034
:100840000021009190F83C10012903D1022001B051
:1008500010BD00BF0468012180F83C10214651F80A
:10086000083FDB0729D10B684DF6836243F0010393
:100870000B6040F20803C2F200031B68C4F21B3293
:10088000A3FB02239A0C02EB42020092009AA2B14F
:10089000009A013A0092009A7AB1009A013A0092C5
:1008A000009A52B1009A013A0092009A2AB1009A35
:1008B000013A0092009A002AEAD10A68036CD20732
:1008C0000AD143F01001016400F1440101200A68DB
:1008D0001043086034E000BF40F2017223EA0202D4
:1008E00002F5807202646268520504D5026C01232D
:1008F00063F30D320264026C4FF0000C0023D2044B
:1009000044BF426C22F0060342F2000E436480F8BA
:100910003CC06FF02200C4F2010E2060DEF8040338
:10092000C00609D074450BD1DEF8080010F0405F16
:1009300006D14FF08040CAE7086810F0405FF8D059
:10094000002001B010BD000090F83C10012904BF48
:100950000220704701688A6822F001028A60896873
:10096000C90705D1016C41F20112914301310164C3
:10097000002180F83C10084670470000B0B50446DE
:1009800000F0F4F8054640F20000C2F200000078E2
:10099000611C18BF044400BF00F0E8F8401BA042EF
:1009A000FAD3B0BD2DE9F04F82B000F13E4241F2E2
:1009B000000502F1FF77C4F2020507224FEAB726CD
:1009C000A84208BF0422042E38BF4FEAB7224FF0D6
:1009D000010A002400274FF00008009208E000BF41
:1009E000023708F10108202F04F1040400F0B4805C
:1009F0000E680AFA08F916EA090FF1D0D1F804A036
:100A00000AF0030BABF10106012E17D8032286680A
:100A100002FA07FECA6826EA0E06BA40324382602E
:100A20004268CAF3001522EA090205FA08F54FEAFE
:100A3000480C6FEA0E062A4342600BE00322BA40DC
:100A4000D643BBF1030FBC4604D1BC464FF0030BA9
:100A500022E000BFC2688D68324005FA0CF52A43D7
:100A6000BBF1020FC26017D16FF0030202EA580215
:100A7000024404F01C030F25D2F820E005FA03FA23
:100A80000D692EEA0A0E05FA03F343EA0E03136218
:100A9000D1F804A00AF0030B02680BFA0CF3324001
:100AA0001A431AF4403F4FF0010A026098D0002226
:100AB00043F644030192C4F202031A6843F6004E5F
:100AC00042F480421A601A68C4F2010E02F48042B5
:100AD0000192019A28F003024FF6084C7244CFF6B7
:100AE000FF7C52F80C3004F00C060F25B540AB43E8
:100AF000009D05FA06F6334342F80C30DEF8082074
:100B00004B6842EA090643F60C4CDD0258BF22EA64
:100B10000906CEF80860C4F2010CDCF800209D0242
:100B200042EA090658BF22EA0906CCF80060DEF85E
:100B300004209D0342EA090658BF22EA0906CEF8BE
:100B40000460DEF80020DB0342EA090658BF22EA0F
:100B50000906CEF8006043E702B0BDE8F08F000060
:100B6000002A08BF090481617047000040F20C10A0
:100B7000C2F200000068704740F2000040F20C1121
:100B8000C2F20000C2F2000100780A681044086056
:100B90007047000080B543F60040C4F202000168CF
:100BA00041F400710160016841F4806101600168F5
:100BB00041F480710160032000F084F80F2000F000
:100BC00005F800F027F8002080BD000070B540F265
:100BD0000006C2F2000640F208013278C2F20001BB
:100BE0004FF47A730968B3FBF2F20446B1FBF2F1F9
:100BF000084600F019FB0F2C4FF0010508D838B952
:100C00004FF0FF3021460022002500F02FF87460DD
:100C1000284670BD82B0002043F640010190C4F226
:100C200002014A6842F480424A604A6802F4804203
:100C30000192019A0090086840F0805008600868AE
:100C400000F080500090009802B07047002848BF24
:100C5000704700F01F01012202FA01F14EF200126A
:100C60004009CEF2000242F82010704710B54EF64F
:100C70000C5CCEF2000CDCF80030C3F3022E8EF0D8
:100C80000704042C28BF0424BEF103034FF0FF3EE9
:100C90000EFA04F438BF0023A14399400EFA03F37F
:100CA0009A43114300F00F02043A624409010C32E6
:100CB00000F16043B0F1FF3FC8BF03F5644211701B
:100CC00010BD00004EF60C51CEF200010A684FF63E
:100CD000FF031A4060F30A2242F0806040F0FD708A
:100CE000086070472DE9F041002800F08B8043F642
:100CF0000808C4F202080446D8F8F8030D4600F0CC
:100D00000700884207D288F8F853D8F8F80300F0B3
:100D10000700A84276D12068810717D5410705D57D
:100D2000D8F8001041F4E051C8F80010010705D5CB
:100D3000D8F8001041F46041C8F80010D8F800104D
:100D4000A26821F0F0011143C8F80010C0073FD19C
:100D5000D8F8F80300F00700A84207D988F8F8533C
:100D6000D8F8F80300F00700A8424BD120684107EB
:100D700007D5D8F80010E26821F4E0511143C8F813
:100D80000010000708D5D8F80000216920F4604061
:100D900040EAC100C8F8000000F054F8D8F800108C
:100DA00042F22C22C1F30311C0F60002515C40F262
:100DB000080220FA01F140F20400C2F200000068CB
:100DC000C2F200021160FFF701FF0020BDE8F081D0
:100DD0006068811E022907D258F8081C89015CBF8F
:100DE0000120BDE8F08111E0012807D158F8081C66
:100DF00089035CBF0120BDE8F08107E058F8081CBA
:100E0000890703D40120BDE8F08100BFD8F80010A5
:100E100021F003010843C8F80000FFF7A7FE0646CB
:100E200041F28837D8F80000616800F00C00B0EBA0
:100E3000810F8DD0FFF79AFE801BB842F2D90320B4
:100E4000BDE8F08110B543F60404C4F20204606802
:100E500000F00C0008280BD0042819BF42F2004013
:100E6000C0F2F40047F64000C0F27D1010BD00BF94
:100E7000206821682368490247F64001C0F27D11CD
:100E800000F03F02C3F388105CBF42F20041C0F2A1
:100E9000F401A1FB00010023FFF7ECF92168022215
:100EA000C1F3014102EB4101B0FBF1F010BD0000C4
:100EB0002DE9F04182B000286AD00446007843F65C
:100EC0000006C007C4F202060BD0B06800F00C00A8
:100ED000042840F0A1803068800302D560680028B3
:100EE00056D0207880071AD5B06810F00C0F09D0C2
:100EF000B06800F00C00082840F0A880706840023C
:100F000000F1A4803068800702D5E06801283FD155
:100F10003068216920F0F80040EAC1003060207894
:100F2000000739D4207840074ED4A5695DB3B06876
:100F300000F00C00082840F0BD80012D28D070681A
:100F4000E16900F480028A4222D1216A00F03F0266
:100F50008A421DD147F6C071626A0140B1EB821F1F
:100F600016D1A26A0023CFF6FF7303EBC23200F45E
:100F700040316FF30F0291420AD1E16A00F07060D4
:100F8000B0EB016F04D1002002B0BDE8F08100BFDA
:100F9000012002B0BDE8F0816069002840F2000045
:100FA000C4F2472076D00121C0F8801EFFF7DEFD95
:100FB000054600BF706F8007B4D4FFF7D7FD401B14
:100FC0000228F7D9DDE000BF306C10F080580AD15C
:100FD00000200190306C40F080503064306C00F0A4
:100FE00080500190019847F20007C4F2000738686A
:100FF000C00541D4386840F480703860FFF7B6FD12
:10100000054600BF3868C00536D4FFF7AFFD401B6A
:101010000228F7D9B5E000BFB06800F00C0008283E
:1010200003D1706840023FF556AF6068B0F5803F6D
:1010300007D0B0F5A02F40F08D80306840F48020BC
:101040003060306840F4803030608DE0E068002827
:1010500052D00020C4F2472001210160FFF786FD35
:10106000054600BF306880073FF552AFFFF77EFDB1
:10107000401B0228F6D984E0A068012805D0052885
:101080004ED1306F40F004003067306F40F0010007
:1010900030674FE00021C0F8801EFFF767FD05466E
:1010A000706F80077FF53EAFFFF760FD401B0228A1
:1010B000F6D966E00027C4F2472700203866FFF71C
:1010C00055FD022D05460BD1306880015ED5FFF736
:1010D0004DFD401B02284FF00300F5D954E700BF37
:1010E000306880017FF54FAFFFF740FD401B0228BD
:1010F0004FF00300F4D947E70020C4F24720002155
:101100000160FFF733FD0546306880077FF507AFC4
:10111000FFF72CFD401B02284FF00300F4D933E702
:10112000316F002821F001013167316F21F0040196
:1011300031674DD0FFF71AFD054641F2883700BFF1
:10114000306F800756D4FFF711FD401BB842F7D926
:1011500017E000BF3168002821F480313160316828
:1011600021F4802131604FD0FFF700FD054600BF1C
:10117000306880033FF5B5AEFFF7F8FC401B6428EC
:10118000F6D9032002B0BDE8F08100BF04F11C05D0
:101190002FCD08430021CFF6FF7140EA821001EB0A
:1011A000C3316FF30F0140EA05600843706001200E
:1011B0003866FFF7DBFC0446306880013FF5E3AE9C
:1011C000FFF7D4FC001B02284FF00300F4D9DBE644
:1011D000FFF7CCFC054641F2883700BF306F80072F
:1011E00008D5FFF7C3FC401BB8424FF00300F5D908
:1011F000CAE600BFB8F1000F7FF497AE306C20F064
:101200008050306491E600BFFFF7B0FC054600BF98
:10121000306880037FF565AEFFF7A8FC401B6428AB
:101220004FF00300F4D9AFE6411E0020B0EB116F80
:101230001CBF012070474EF21002CEF20002516036
:101240004EF62351CEF20001F0230B70072190607F
:1012500011607047704700007047000010B590F8AB
:101260003C20012A4FF002023ED080F83D20026867
:10127000D2F804E0D2F808C00C682EF070032343C3
:1012800040F6FF34C4F20004A242536010DCB2F115
:10129000804F1ED040F20043C4F200039A4218D09F
:1012A00040F60003C4F200039A4212D016E000BFD9
:1012B00040F60043C4F200039A420AD044F200030D
:1012C000C4F201039A4204D00023C4F201039A42FB
:1012D00004D149682CF08003194391600121002258
:1012E00080F83D1080F83C20104610BD002804BF57
:1012F0000120704710B5044690F83D0028B9002041
:1013000084F83C00204600F08FF8022084F83D006D
:10131000206840F2FF730268C4F2000340F2000C40
:101320009842C4F2010C1DDD40F60001C4F2000138
:10133000884220D060451ED040F60041C4F2000132
:10134000884218D04FF6FF71C4F2000188421CDCBD
:10135000984225DCB0F1804F3AD040F20041C4F20F
:10136000000133E0B0F1804F05D040F20041C4F2FB
:1013700000018842E6D1A16822F070020A434FF6CC
:10138000FF71C4F200018842E2DD44F2FF31C4F291
:101390000101884210DC60451AD044F2000113E0DC
:1013A00040F60001C4F20001884211D040F600412D
:1013B000C4F200010AE000BF44F60001C4F20101DA
:1013C000884205D044F20041C4F20101884203D1B1
:1013D000216922F440720A43A36922F08001D4F803
:1013E00004E0E268194360450160C262C0F828E089
:1013F00002D16169CCF8301001214161002084F8EC
:10140000461084F83E1084F83F1084F8401084F8A9
:10141000411084F8421084F8431084F8441084F892
:10142000451084F83D1010BD80B582B0006840F2D0
:101430000041C4F20001884216D00021C4F201012B
:1014400088420ED10020019043F64000C4F2020011
:10145000416841F001014160406800F001000190E5
:10146000019802B080BD00BF0020009043F640000C
:10147000C4F202000168002241F00201016000682C
:10148000002100F00200009000981D20FFF7EEFB05
:101490001D2002B0BDE88040FFF7D8BB90F83D109A
:1014A00001291CBF01207047022180F83D1000680F
:1014B00040F6FF32C168C4F20002904241F00101DF
:1014C000C1600FDCB0F1804F1DD040F20041C4F28A
:1014D0000001884217D040F60001C4F200018842A2
:1014E00011D017E040F60041C4F2000188420AD052
:1014F00044F20001C4F20101884204D00021C4F288
:101500000101884206D1816801F00701062904BF64
:1015100000207047016841F0010101600020704720
:1015200080B590F83C20012A4FF0020200F0C28002
:1015300080F83D20D0F800C04FF67772DCF8083014
:1015400023EA0202CCF808200B684F2B28DC1F2B63
:1015500044DD202B45D0302B43D0402B40F0AC80D5
:10156000D1F804E0C968DCF82030DCF8202022F053
:101570000102CCF82020DCF8182022F0F00242EA28
:10158000011123F00A0242EA0E02CCF81810CCF83E
:101590002020DCF8081041F0470121F0300180E004
:1015A0006F2B27DDB3F5005F48D0B3F5805F7AD0AD
:1015B000702B40F08180D1E901E3C968DCF8082094
:1015C00043EA0E0322F47F4243EA01211143CCF89F
:1015D0000810DCF8081041F0770162E00BB1102B25
:1015E0006AD1DCF8081021F07001194341F00701BD
:1015F00057E000BF502B35D0602B5DD1D1F804E00F
:10160000C968DCF8203023F01003CCF82030DCF877
:101610001830DCF8202023F4704322F0A00243EAC3
:10162000013142EA0E12CCF81810CCF82020DCF878
:10163000081041F0670121F0100132E0D1E901E327
:10164000C968DCF8082043EA0E0322F47F4243EA2B
:1016500001211143CCF80810DCF8081041F4804156
:101660001FE000BFD1F804E0C968DCF82030DCF8E6
:10167000202022F00102CCF82020DCF8182022F0F3
:10168000F00242EA011123F00A0242EA0E02CCF80B
:101690001810CCF82020DCF8081041F0570121F098
:1016A0002001CCF808100022012180F83D10002113
:1016B00080F83C10104680BD0122F5E7704700001D
:1016C00010B5016804460869800744BFC8685FEA2E
:1016D000807039D40869400744BFC8685FEA407029
:1016E0003ED40869000744BFC8685FEA007045D46B
:1016F0000869C00644BFC8685FEAC0604AD4086988
:10170000C0071CBFC8685FEAC07051D108690006F5
:1017100044BFC8685FEA006052D40869400644BF0D
:10172000C8685FEA406053D40869800646BFC8684D
:101730005FEA806010BD6FF0200220460A61BDE8BC
:101740001040FFF789BD00BF6FF002000861012063
:1017500020778869800743D02046FFF7AFFF45E038
:101760006FF00400086102202077886910F4407F40
:1017700040D02046FFF7A2FF42E000BF6FF0080014
:10178000086104202077C86980073DD02046FFF714
:1017900095FF3FE06FF01000086108202077C869CE
:1017A00010F4407F3AD02046FFF788FF3CE000BFAE
:1017B0006FF001000861204600F03EF82168A5E7BF
:1017C0006FF0800008612046FFF744FD2168A4E720
:1017D0006FF040000861204600F07EF82168A3E722
:1017E000204600F025F8204600F024F8216800206B
:1017F00020776FE7204600F01BF8204600F01AF82B
:101800002168002020776CE7204600F011F8204680
:1018100000F010F821680020207769E7204600F0EA
:1018200007F8204600F006F821680020207766E7D8
:101830007047000070470000B0B540F27005C2F27A
:10184000000505F10C042046FEF7F8FF2046642150
:10185000FEF776FF2046FFF777F82046FEF78AFE70
:10186000286000F0C0FB9FED180B53EC102B00F02C
:10187000CDFB00F087FB9FED160A01EE100A81EE0A
:10188000000A9FED141A00220024042120EE011A00
:1018900085ED010A85ED021A40F20045B3EE0B0A10
:1018A000C4F20205B4EE401A2846F1EE10FAD4BF95
:1018B00001240122FFF754F9284602212246BDE8FF
:1018C000B040FFF74DB900BF6666666666660A40BF
:1018D00000F07F450000C84270470000FEE70000AE
:1018E000FEE70000FEE700007047000070470000C0
:1018F000FFF742B94EF68850CEF20000016841F47D
:10190000700101607047000040F2C400C2F20000A4
:10191000FFF7D6BEFEE7000094B043F6300547F26D
:101920000007C4F20205C4F20007FFF733F908AC60
:10193000201D2C21FEF716FD00260696CDE9046633
:10194000CDE9026601962869022140F080502861A5
:10195000286900F08050019001980196386861F381
:101960008F303860386800F44040019001980120C1
:101970000B9010200C90204608910E96FFF798FAD5
:1019800020B1EFF3108072B6FEE700BF0F20CDE963
:10199000020602A80021CDE904660696FFF7A2F927
:1019A00020B1EFF3108072B6FEE700BF00260C9660
:1019B0000296286807F5CA3440F0010028602868BC
:1019C000262100F001000290029802962868002269
:1019D00040F00200286028684FF0260800F002005E
:1019E000029002982046FFF7BBF807F5C835284655
:1019F0004FF4407100224FF4407AFFF7B1F8CDF870
:101A000020800DF120084FF0010920464146CDE924
:101A100009960B96FEF7C6FF0220CDE90A06284676
:101A20004146CDE908A9FEF7BDFF40F27004C2F2BD
:101A3000000407F53041204640F80C1F0121C0F694
:101A400000710B96067680F82060C0E90A16C0F88F
:101A50001C9080F83060C0E90166C0E90366C0F8F8
:101A60001490FEF78BFD28B1EFF3108072B600BF23
:101A7000FEE700BF0720CDE9080904F10C0008A922
:101A80000A96FEF7D7FC28B1EFF3108072B600BFBC
:101A9000FEE700BF40F2C40040F200420021C2F263
:101AA0000000C4F2000243F67F6340F2E7370B9177
:101AB000CDE90911CDE90211C0E90023C0E90217FF
:101AC00001618161FFF712FC20B1EFF3108072B663
:101AD000FEE700BF4FF48050089040F2C400C2F20D
:101AE000000008A9FFF71CFD20B1EFF3108072B6CB
:101AF000FEE700BF40F2C400C2F2000002A9FFF7F7
:101B0000ADFB28B1EFF3108072B600BFFEE700BF57
:101B100040F2C400C2F20000FFF7C0FCFC20EF213D
:101B200000F00CF866204FF4EF7100F007F8DA20AF
:101B30004FF46F7100F002F8F0E700002DE9F04774
:101B400040F2000AC4F2020A0AF580688946074694
:101B5000404620210022FFF703F807EBD77020F062
:101B600001003C1A50464FF4807100227E10FEF7AF
:101B7000F7FF012C02D03CB9002200E001225046C0
:101B80004FF40071FEF7ECFF50464FF480710122D4
:101B9000FEF7E6FF00200024FEF7F0FE06EBD6700D
:101BA00020F00100351A50464FF480710022BE101B
:101BB000FEF7D6FF15B1012D06D1012450464FF492
:101BC00000712246FEF7CCFF50464FF4807101228F
:101BD000FEF7C6FF00200024FEF7D0FE06EBD6700D
:101BE00020F00100351A50464FF480710022FE109B
:101BF000FEF7B6FF15B1012D06D1012450464FF472
:101C000000712246FEF7ACFF50464FF4807101226E
:101C1000FEF7A6FF00200024FEF7B0FE06EBD6700C
:101C200020F00100351A50464FF4807100223E1119
:101C3000FEF796FF15B1012D06D1012450464FF451
:101C400000712246FEF78CFF50464FF4807101224E
:101C5000FEF786FF00200024FEF790FE06EBD6700C
:101C600020F00100351A50464FF4807100227E1199
:101C7000FEF776FF15B1012D06D1012450464FF431
:101C800000712246FEF76CFF50464FF4807101222E
:101C9000FEF766FF00200024FEF770FE06EBD6700C
:101CA00020F00100351A50464FF480710022BE1119
:101CB000FEF756FF15B1012D06D1012450464FF411
:101CC00000712246FEF74CFF50464FF4807101220E
:101CD000FEF746FF00200024FEF750FE06EBD6700C
:101CE00020F00100351A50464FF480710022FE1199
:101CF000FEF736FF15B1012D06D1012450464FF4F1
:101D000000712246FEF72CFF50464FF480710122ED
:101D1000FEF726FF00200024FEF730FE06EBD6700B
:101D200020F00100351A50464FF480710022FEF772
:101D300017FF15B1012D06D1012450464FF4007153
:101D40002246FEF70DFF50464FF480710122012715
:101D5000FEF706FF0020FEF711FE09EBD97020F018
:101D60000100A9EB000450464FF4807100224FEAB5
:101D70006906FEF7F5FE012C01D034B90027504664
:101D80004FF400713A46FEF7EBFE50464FF4807177
:101D90000122FEF7E5FE00200024FEF7EFFD06EB32
:101DA000D67020F00100351A50464FF480710022A1
:101DB0004FEAA906FEF7D4FE15B1012D06D1012484
:101DC00050464FF400712246FEF7CAFE50464FF4CB
:101DD00080710122FEF7C4FE00200024FEF7CEFD34
:101DE00006EBD67020F00100351A50464FF4807192
:101DF00000224FEAE906FEF7B3FE15B1012D06D128
:101E0000012450464FF400712246FEF7A9FE5046C9
:101E10004FF480710122FEF7A3FE00200024FEF79C
:101E2000ADFD06EBD67020F00100351A50464FF498
:101E3000807100224FEA2916FEF792FE15B1012D9E
:101E400006D1012450464FF400712246FEF788FE69
:101E500050464FF480710122FEF782FE00200024DC
:101E6000FEF78CFD06EBD67020F00100351A5046C7
:101E70004FF4807100224FEA6916FEF771FE15B12A
:101E8000012D06D1012450464FF400712246FEF781
:101E900067FE50464FF480710122FEF761FE00207C
:101EA0000024FEF76BFD06EBD67020F00100351A1A
:101EB00050464FF4807100224FEAA916FEF750FEFB
:101EC00015B1012D06D1012450464FF40071224670
:101ED000FEF746FE50464FF480710122FEF740FEA9
:101EE00000200024FEF74AFD06EBD67020F001002A
:101EF000351A50464FF4807100224FEAE916FEF77A
:101F00002FFE15B1012D06D1012450464FF400716A
:101F10002246FEF725FE50464FF480710122FEF75F
:101F20001FFE00200024FEF729FD06EBD67020F0EE
:101F30000100351A50464FF480710022FEF710FE62
:101F400015B1012D06D1012450464FF400712246EF
:101F5000FEF706FE50464FF480710122FEF700FEA8
:101F60000020FEF70BFD404620210122FEF7F8FD80
:101F70000120FEF703FD404620210022BDE8F04786
:101F8000FEF7EEBD21F0004201F00043A2F16052E5
:101F9000B2F5801F28BFD2F17F6C0BD95FEA001C1D
:101FA00043EAC20242EB507018BF704728BF20F0CE
:101FB00001007047B2F5801FBCBF184670474FEA5A
:101FC000410C1CF5001F02D2084600F02AB970B57A
:101FD00000F0C6F800000089FFF7F6BF4FF00040A0
:101FE000A0F580007047B0FA80F310FA03F10AD030
:101FF000C3F11D0303F580634FEA03524FEA4150DA
:1020000002EBD12170474FF00000704770B5DFF848
:1020100048C11CEA111E1EBF1CEA13159EEA0C0FD4
:1020200095EA0C0F00F06F8081EA03044EEAD47E3B
:10203000AE4421EA4C1123EA4C1341F4801143F4DD
:102040008013AEF17F7EA1FB024CA0FB0365361925
:1020500055EB0C05A1FB034C4CF10003A0FB021C4B
:1020600016EB0C06654153F10003094218BF46F018
:10207000010613F4007F0BD14FEA03314FEA05301C
:1020800041EA155140EA165034036FF003020AE0AA
:102090004FEAC3214FEAC52041EA555140EA565064
:1020A000F4026FF0020202EB2E4201EB025585EAC8
:1020B000CE710AD05FEA440C18BF24F0004450F1FE
:1020C000000041F1000120EAD47040F2FE7C62453C
:1020D00000D270BDA84214BF4FF080444FF040447E
:1020E000002E08BF0024BEF1806FA8BFA1F1C0413F
:1020F000BDE8704080F2828001F1C04101F00041F2
:102100004FF0000070470CEA13159EEA0C0F18BF41
:1021100095EA0C0F06D081EA030E4FF000000EF096
:10212000004170BD00F01CF88900013E00F007B8C6
:1021300000F009B84FEA430C5FEA5C5C08D081EA22
:10214000030100F05BB84FEA410C5FEA5C5CF6D13A
:1021500002494FF0000070470000FF070000F87FC1
:102160000EF1020E2EF0030E5EF8046B364205D41B
:10217000012A43EB030515F5001F12D8012841EB96
:10218000010C1CF5001F0CD80ED14FEAD17C0CEBD2
:102190004C0C0CF1020C15F5001F08BF4CEBD37C66
:1021A00004E04FF0080C01E04FEAD37C0CEB4C0547
:1021B00026FA05F606F00706B6F1040C06D20EEB79
:1021C000860CBDE870404CF0010C6047DFE80CF075
:1021D000090B02024FF00041A1F500214FF0000071
:1021E00070BD19461046012851EB010418BFD4F503
:1021F000001484BF002001F0004170BD0808A0F564
:1022000000114FEA31017047F1EE100A4FF6FF71ED
:10221000C0F2C03120EA010040F04070E1EE100A47
:102220007047FF2141EAD050C00570470000000010
:1022300000000000010203040607080960220008EC
:102240000000002010000000D001000870220008EB
:102250001000002000070000EC0100080000000052
:1022600001000000100000000024F4000000000045
:040000050800019559
:00000001FF
