:020000040800F2
:100000006806002021020008290200082B020008CF
:100010002D0200082F020008310200080000000035
:100020000000000000000000000000003302000893
:1000300035020008000000003702000839020008FD
:100040003B0200083B0200083B0200083B0200089C
:100050003B0200083B020008550500083B0200086F
:100060003B0200083B0200083B0200083B0200087C
:100070003B0200083B0200083B0200083B0200086C
:100080003B0200083B0200083B02000800000000A1
:100090000000000000000000000000003B0200081B
:1000A0003B0200083B0200083B0200083B0200083C
:1000B00049080008310900083B0200083B0200081B
:1000C0003B0200083B0200083B0200083B0200081C
:1000D0003B0200083B0200083B0200080000000051
:1000E0003B0200083B0200083B0200080000000041
:1000F0000000000000000000000000003B020008BB
:10010000000000003B0200083B0200083B02000820
:1001100000000000000000000000000000000000DF
:100120003B0200083B0200083B0200083B020008BB
:100130003B0200080000000000000000000000007A
:100140000000000000000000000000003B0200086A
:100150003B0200083B0200083B0200083B0200088B
:100160003B0200083B020008000000000000000005
:10017000000000000000000000000000000000007F
:10018000000000003B02000800000000000000002A
:100190003B02000800F002F800F032F80AA090E8F4
:1001A000000C82448344AAF10107DA4501D100F032
:1001B00027F8AFF2090EBAE80F0013F0010F18BFCD
:1001C000FB1A43F001031847300900004009000002
:1001D0000023002400250026103A28BF78C1FBD850
:1001E000520728BF30C148BF0B6070471FB500F0F1
:1001F00076FC9DE8030000F081F81FBD10B510BD2E
:1002000000F000F91146FFF7F1FF00F059FC00F093
:100210001EF903B4FFF7F2FF03BC00F04FF9000032
:100220000948804709480047FEE7FEE7FEE7FEE78A
:10023000FEE7FEE7FEE7FEE7FEE7FEE704480549C6
:10024000054A064B70470000D507000895010008D5
:100250006800002068060020680200206802002074
:1002600070B5064600F02EF8056806F10B0020F088
:100270000704B4429CBF002070BD2B466A68BAB127
:100280001068A04210D304F1080188423CBF5068B6
:10029000586007D35168101941601168091B01604B
:1002A00058601460101D70BD13465268002AE7D1D3
:1002B0002146284600F00EF80028DED170BD7047B8
:1002C000704770470048704708000020704770472B
:1002D0007047704738B504460A4600206946AFF3B8
:1002E0000080002808BF38BD02460099204600F073
:1002F00067F8012038BD012000F07CB8F8B5AFF3F5
:100300000080054600200C46102000BF0646A819B4
:10031000A0420DD9324669460020AFF300800700A5
:1003200008BF00F067F80098A04218BF0546C4193E
:10033000FFF7C8FF05600746F01D20F007004619CB
:10034000284600F00AF8B44208BFF8BDA21B3146A7
:100350003868BDE8F84000F033B800210160C0E91A
:10036000011070471020704770B50446051FFFF755
:10037000A9FF0068002C14BF446870BD002C18BF92
:10038000AC423CBF20466468F8D301680A18AA4210
:1003900018BF456003D12A680546114401602868EA
:1003A0004119A1421CBF6C6070BD61686960216821
:1003B0000844286070BD000000487047000000201D
:1003C000034640688C46002818BF88423CBF03465D
:1003D0004068F8D318681844884207D00CF103002D
:1003E00020F00700001D411A521A0146081D0A603C
:1003F000FFF7BABF10B500F039F8BDE8104000F0C3
:100400002FB870477546FFF7D7FFAE46050069461F
:10041000534620F00700854618B020B5FFF70EFFC1
:10042000BDE820404FF000064FF000074FF00008F5
:100430004FF0000BAC46ACE8C009ACE8C009ACE832
:10044000C009ACE8C00921F007018D46704710B51E
:100450000446AFF300802046BDE81040FFF7D9BE48
:10046000002801D000F02AB87047000010B501281C
:1004700005D0002103A000F027F8012010BD09A13C
:10048000F8E7000053494752544D454D3A204F7507
:1004900074206F662068656170206D656D6F72797C
:1004A000000000003A2048656170206D656D6F7234
:1004B0007920636F72727570746564000149182049
:1004C000ABBEFEE72600020070B505460C460A20CA
:1004D00000E06D1C00F011F835B128780028F8D143
:1004E00002E0641C00F009F814B120780028F8D16B
:1004F000BDE870400A20AFF3008008B569468DF86A
:1005000000000320ABBE08BD80B543F64401C4F231
:100510000201086840F48040086043F60801C4F214
:100520000101086840F00100086043F60041C4F290
:100530000101086840F00100086043F60841C4F278
:100540000101086840F001000860062000F0F8F999
:1005500062B680BD80B540F26000C2F20000006863
:1005600058B9FFE700F040F900F0AAF940F2600145
:10057000C2F200010120086012E040F26000C2F205
:100580000000006801280AD1FFE74FF080410020F9
:10059000086040F20041C4F200010860FFE7FFE795
:1005A00080BD000080B5002000F004F8102000F0AD
:1005B00001F880BD80B584B08DF80F0040F2144181
:1005C000C4F202010291086820F040000860086847
:1005D00020F02000086040F61801C4F202014FF438
:1005E0007F0008609DF80F0040F61401C4F202017C
:1005F00008600020019000F047FA0198029A116803
:1006000041F08001116000F03FFA0299086820F083
:10061000800008609DF80F00032804DCFFE702203B
:1006200000F032FA03E0012000F02EFAFFE704B0F8
:1006300080BD000080B586B08DF817009DF81700CA
:1006400000F00F008DF816009DF8170000F0F00084
:100650008DF8150040F21441C4F2020103910868BC
:1006600040F020000860086820F04000086040F674
:100670001802C4F202024FF47F0010609DF81500CA
:1006800040F61402C4F2020201921060086840F0C1
:10069000800008600020029000F0F6F903990868D5
:1006A00020F0800008600120049000F0EDF9019B2B
:1006B0000298039A9DF8161009011960116841F01B
:1006C0008001116000F0E0F9039A0498116821F0AC
:1006D0008001116000F0D8F906B080BD80B586B009
:1006E00000F046F8142000F0CFF930200190FFF719
:1006F00061FF052000F0C8F90198FFF75BFF0120BA
:1007000000F0C2F90198FFF755FF20200290FFF793
:1007100051FF0298FFF74EFF80200390FFF74AFF3A
:1007200000200590FFF746FF0398FFF743FF059869
:10073000FFF740FFC020FFF73DFF0598FFF73AFFA6
:100740006020FFF737FF10200490FFF733FF039876
:10075000FFF730FF0598FFF72DFF0498FFF72AFFFA
:100760000598FFF727FFF020FFF724FF06B080BDB4
:1007700043F63001C4F20201086840F0020008604C
:1007800040F20C42C4F20202106840F00200106015
:1007900040F20042C4F20202106840F4AA40106025
:1007A000086840F00400086040F60002C4F202024B
:1007B00045F25550C0F255001060086840F0010045
:1007C00008600021C4F20201086840F4A0600860DB
:1007D000704700004EF68851CEF20001086840F4E0
:1007E000700008607047000080B572B643F64001A3
:1007F000C4F20201086840F0010008602821C4F238
:1008000000010F2008602C21C4F200016320086061
:100810004FF08041086840F0010008602422C4F2D3
:100820000002002010600C22C4F20002106840F0A8
:1008300001001060086840F0010008601C2000F012
:100840007FF862B680BD000080B584B040F26400DD
:10085000C2F20000016801310160006803900020CD
:100860000290FFF79FFEFFE7039868B1FFE7039848
:100870004CF6CD41CCF6CC41A0FB0110C008039052
:10088000029801300290EFE740F26400C2F20000EB
:10089000006800F06DF8019000200090FFE70098DC
:1008A000029988420ADAFFE701980099405CFFF755
:1008B000C1FEFFE7009801300090F0E704B080BD72
:1008C00080B572B643F64001C4F20201086840F0F8
:1008D0000200086040F22841C4F2000140F23F608B
:1008E000086040F22C41C4F2000142F20F7008602F
:1008F00040F20041C4F20001086840F001000860C5
:1009000040F22442C4F200020020106040F20C4287
:10091000C4F20002106840F001001060086840F066
:10092000010008601D2000F00BF862B680BD0000D9
:100930001421C4F20201086880F0100008607047BA
:1009400081B08DF803009DF9030000280ED4FFE765
:100950009DF9031001F01F02012090404A094EF258
:100960000011CEF2000141F82200FFE701B070470C
:10097000D0B502AF8AB047F80C0C57F80C0C47F80A
:10098000100C002047F8140CFFE757F8100C98B132
:10099000FFE757F8140C013047F8140C57F8100C07
:1009A00046F26761C6F2666150FB01F1881000EB08
:1009B000D17047F8100CE8E757F8140C694647F86F
:1009C0001C1CC11D21F007026946891A8D4647F893
:1009D0002C1C47F8200C57F8140CFFF741FC47F883
:1009E000180C002047F8240CFFE757F80C0CF8B15E
:1009F000FFE757F82C2C57F80C0C4CF6CD41CCF6F1
:100A0000CC41A0FB01C3DB0803EB8303A0EB430055
:100A100040F0300057F8243C013347F8243CD054D0
:100A200057F80C0CA0FB0110C00847F80C0CDCE7D1
:100A3000002047F8280CFFE757F8280C57F8241C2B
:100A4000884212DAFFE757F82C0C57F8241C57F8A5
:100A5000282C891A405C57F8181C8854FFE757F86F
:100A6000280C013047F8280CE6E757F8181C57F80F
:100A7000282C0020885457F8180C57F81C1C8D4659
:100A8000A7F10804A546D0BD83B00290FFE7029805
:100A9000012813DBFFE700200090FFE7009840F6F5
:100AA0007A41884205DCFFE7FFE7009801300090BB
:100AB000F4E7FFE7029801380290E8E703B07047D7
:100AC00080B582B000200190FFF752FE72B6FFF7AA
:100AD00005FEFFF767FDFFF717FDFFE7FEE7F1EE05
:100AE000100A4FF6FF71C0F2C03120EA010040F059
:100AF0004070E1EE100A7047080B0008000000206B
:080B000068060000D0010008A6
:040000050800019559
:00000001FF
