:020000040800F2
:1000000060060020190200082102000823020008EF
:10001000250200082702000829020008000000004D
:100020000000000000000000000000002B0200089B
:100030002D020008000000002F0200083102000815
:1000400033020008330200083302000833020008BC
:1000500033020008330200083302000833020008AC
:10006000330200083302000833020008330200089C
:10007000330200083302000833020008330200088C
:1000800033020008330200083302000800000000B9
:100090000000000000000000000000003302000823
:1000A000330200083302000833020008330200085C
:1000B000330200083302000833020008330200084C
:1000C000330200083302000833020008330200083C
:1000D0003302000833020008330200080000000069
:1000E0003302000833020008330200080000000059
:1000F00000000000000000000000000033020008C3
:100100000000000033020008330200083302000838
:1001100000000000000000000000000000000000DF
:1001200033020008330200083302000833020008DB
:100130003302000800000000000000000000000082
:100140000000000000000000000000003302000872
:1001500033020008330200083302000833020008AB
:100160003302000833020008000000000000000015
:10017000000000000000000000000000000000007F
:100180000000000033020008000000000000000032
:100190003302000800F002F800F02EF80AA090E800
:1001A000000C82448344AAF10107DA4501D100F032
:1001B00023F8AFF2090EBAE80F0013F0010F18BFD1
:1001C000FB1A43F0010318471C0500002C05000032
:1001D0000023002400250026103A28BF78C1FBD850
:1001E000520728BF30C148BF0B6070471FB500F0F1
:1001F0006CFA1FBD10B510BD00F031F81146FFF7C5
:10020000F5FF00F071F800F04FF803B4FFF7F2FFCC
:1002100003BC00F057F80000094880470948004730
:10022000FEE7FEE7FEE7FEE7FEE7FEE7FEE7FEE7A6
:10023000FEE7FEE704480549054A064B7047000003
:10024000D50200089501000860000020600600202B
:1002500060020020600200207047704770477546BA
:1002600000F02CF8AE4605006946534620F0070022
:10027000854618B020B5FFF7DDFFBDE820404FF000
:1002800000064FF000074FF000084FF0000BAC469F
:10029000ACE8C009ACE8C009ACE8C009ACE8C009EA
:1002A00021F007018D46704710B50446AFF300807A
:1002B0002046BDE81040FFF7A8BF00000048704787
:1002C0000000002001491820ABBEFEE72600020016
:1002D000704700004EF68851CEF20001086840F4E5
:1002E000700008607047000084B00020039043F65F
:1002F0003002C4F20202116841F00101116011687C
:1003000041F0020111600022C4F202021168106083
:1003100040F20C43C4F202034AF6AA2119601168A4
:1003200041F05531116040F20041C4F202010A6807
:1003300008600290FF200290FFE7FFE7029840F27A
:100340001041C4F202010968884201D1FFE7F5E7D4
:1003500040F21040C4F2020001680291006800F00F
:100360000F00014601910F2800F29B800199DFE800
:1003700001F008111A232C353E475059626B747DE9
:10038000868F1821C4F202014FF4FE0008603F205E
:1003900008608FE01821C4F202014FF4FE000860EB
:1003A0000620086086E01821C4F202014FF4FE0026
:1003B00008605B2008607DE01821C4F202014FF460
:1003C000FE0008604F20086074E01821C4F20201AA
:1003D0004FF4FE000860662008606BE01821C4F24C
:1003E00002014FF4FE0008606D20086062E01821F1
:1003F000C4F202014FF4FE0008607D20086059E05D
:100400001821C4F202014FF4FE00086007200860C2
:1004100050E01821C4F202014FF4FE0008607F2072
:10042000086047E01821C4F202014FF4FE000860A2
:100430006F2008603EE01821C4F202014FF4FE0074
:1004400008607720086035E01821C4F202014FF4FB
:10045000FE0008607C2008602CE01821C4F2020134
:100460004FF4FE0008603920086023E01821C4F230
:1004700002014FF4FE0008605E2008601AE01821B7
:10048000C4F202014FF4FE0008607920086011E018
:100490001821C4F202014FF4FE00086071200860C8
:1004A00008E01821C4F202014FF4FE0008603F206A
:1004B0000860FFE740F21040C4F20200006800F05C
:1004C000F00001460091002843D0FFE70098102873
:1004D0004AD0FFE70098202851D0FFE70098302845
:1004E00058D0FFE7009840285FD0FFE700985028D9
:1004F00066D0FFE7009860286DD0FFE7009870286D
:1005000074D0FFE7009880287BD0FFE70098902800
:1005100000F08280FFE70098A02800F08880FFE7C5
:100520000098B02800F08E80FFE70098C02800F007
:100530009480FFE70098D02800F09A80FFE70098A9
:10054000E02800F0A080FFE70098F02800F0A680E7
:10055000AFE01821C4F202010020CFF680700860DD
:100560004FF4FC500860AFE01821C4F202010020F3
:10057000CFF6807008604FF440700860A4E0182146
:10058000C4F202010020CFF6807008604FF43650AC
:10059000086099E01821C4F202010020CFF68070B3
:1005A00008604FF41E5008608EE01821C4F202016A
:1005B0000020CFF6807008604FF44C50086083E054
:1005C0001821C4F202010020CFF6807008604FF4B9
:1005D0005A50086078E01821C4F202010020CFF6DA
:1005E000807008604FF47A5008606DE01821C4F202
:1005F00002010020CFF6807008604FF46070086040
:1006000062E01821C4F202010020CFF68070086079
:100610004FF47E50086057E01821C4F20201002018
:10062000CFF6807008604FF45E5008604CE01821EF
:10063000C4F202010020CFF6807008604FF46E50C3
:10064000086041E01821C4F202010020CFF680705A
:1006500008604FF47850086036E01821C4F20201B7
:100660000020CFF6807008604FF4E45008602BE063
:100670001821C4F202010020CFF6807008604FF408
:100680003C50086020E01821C4F202010020CFF69F
:10069000807008604FF47250086015E01821C4F2B1
:1006A00002010020CFF6807008604FF462500860AD
:1006B0000AE01821C4F202010020CFF68070086021
:1006C0004FF4FC500860FFE737E6F1EE100A4FF6F2
:1006D000FF71C0F2C03120EA010040F04070E1EE4D
:1006E000100A7047F40600080000002060060000B1
:0406F000D00100082D
:040000050800019559
:00000001FF
