:020000040800F2
:10000000A807002035020008C11B0008B91B000822
:10001000BD1B00082D040008C51D000800000000DD
:10002000000000000000000000000000C51C0008E7
:100030003104000800000000C51B0008C91C0008AE
:100040004F0200084F0200084F0200084F0200084C
:100050004F0200084F0200084F0200084F0200083C
:100060004F0200084F0200084F0200084F0200082C
:100070004F0200084F0200084F0200084F0200081C
:100080004F0200084F0200084F0200080000000065
:100090000000000000000000000000004F02000807
:1000A0004F0200084F0200084F0200084F020008EC
:1000B0004F0200084F0200084F0200084F020008DC
:1000C0004F0200084F0200084F0200084F020008CC
:1000D0004F0200084F0200084F0200080000000015
:1000E0004F0200084F0200084F0200080000000005
:1000F0000000000000000000000000004F020008A7
:10010000000000004F0200084F020008C91B000851
:1001100000000000000000000000000000000000DF
:100120004F0200084F0200084F0200084F0200086B
:100130004F02000800000000000000000000000066
:100140000000000000000000000000004F02000856
:100150004F0200084F0200084F0200084F0200083B
:100160004F0200084F0200080000000000000000DD
:10017000000000000000000000000000000000007F
:10018000000000004F020008000000000000000016
:100190004F02000800F002F800F03CF80AA090E8D6
:1001A000000C82448344AAF10107DA4501D100F032
:1001B00031F8AFF2090EBAE80F0013F0010F18BFC3
:1001C000FB1A43F001031847BC210000DC210000AA
:1001D000103A24BF78C878C1FAD8520724BF30C873
:1001E00030C144BF04680C60704700000023002445
:1001F00000250026103A28BF78C1FBD8520728BF37
:1002000030C148BF0B6070471FB502F0A2F81FBD98
:1002100010B510BD00F0D0F81146FFF7F5FF01F062
:10022000D3FD00F0EEF803B4FFF7F2FF03BC00F0DB
:10023000F5F800000948804709480047FEE7FEE757
:10024000FEE7FEE7FEE7FEE7FEE7FEE7FEE7FEE786
:1002500004480549054A064B70470000CD1C0008BC
:1002600095010008A8010020A8070020A80300208D
:10027000A803002053EA020C00F069802DE9F04B3E
:100280004FF00006002B1FBFB3FA83F503FA05F405
:1002900024FA05F65E4012BF1643B2FA82F502FA5E
:1002A00005F4C5F120051EBF22FA05FC44EA0C0442
:1002B000203556EA044C4FEA144418BF641C4FF032
:1002C00000084FF00009904271EB030C39D300296C
:1002D00019BFB1FA81F701FA07F6B0FA80F700FA10
:1002E00007F6C7F120071EBF20FA07FC46EA0C06F6
:1002F0002037B6FBF4FCA7EB0507103F07F01F0BF8
:10030000CBF120062CFA06F60CFA0BFB44BFB346E1
:100310000026202FA4BF5E464FF0000B5BEA060CC0
:1003200008BF4FF0010B19EB0B0948EB0608ABFBBC
:10033000027C06FB02CC0BFB03CCC01B71EB0C0157
:10034000C1E70B46024641464846BDE8F08B13B56F
:10035000084318BF4FF0FF300146AFF30080BDE8FF
:100360001C4070474FF0000200B513469446964675
:10037000203922BFA0E80C50A0E80C50B1F12001B8
:10038000BFF4F7AF090728BFA0E80C5048BF0CC066
:100390005DF804EB890028BF40F8042B08BF7047C4
:1003A00048BF20F8022B11F0804F18BF00F8012B36
:1003B0007047704770477047754600F02BF8AE469F
:1003C00005006946534620F00700854618B020B561
:1003D000FFF73EFFBDE820404FF000064FF000075A
:1003E0004FF000084FF0000BAC46ACE8C009ACE899
:1003F000C009ACE8C009ACE8C00921F007018D468E
:10040000704710B50446AFF300802046BDE81040A9
:10041000FFF709BF0048704710000020014918206D
:10042000ABBEFEE72600020070470000FEE70000BA
:100430007047000070B581B00022009290F83C2017
:10044000012A03D10221084601B070BDD1F800E0B5
:100450000122BEF10A0F80F83C200BD31FFA8EF266
:100460005200066812FA8EF2A2F11E0306F10C0287
:1004700005E000BF06680EEB4E0306F110024FF0D8
:10048000070C15680CFA03F4A54315608D68146811
:1004900005FA03F3234313604968062906D801EBE4
:1004A0008101053906F134020AE000BF0C2901EB95
:1004B000810187BF413906F12C02233906F1300250
:1004C0001F2314688B4024EA030342F2043C1360A8
:1004D000C4F2010C1FFA8EF3146803FA01F1ACF5B3
:1004E000417321439E4211603ED1BEF1120F07D1EC
:1004F000DCF8001041F48001CCF8001034E000BFBB
:100500002EF0010110292FD1DCF80010BEF1100FE0
:1005100041F40001CCF8001026D140F20801C2F2EB
:10052000000109684DF68362C4F21B32A1FB02127E
:10053000910C01EB8101490000910099A1B1009952
:1005400001390091009979B1009901390091009920
:1005500051B1009901390091009929B100990139EF
:10056000009100990029EAD1002180F83C1008464A
:1005700001B070BD0068C06C70470000002804BF67
:100580000120704710B50446006C00283ED0206C56
:10059000C00645D4206C41F202118843023042F279
:1005A00004312064C4F20101086820F4403008607E
:1005B0000A6894E809101A43D4F810E00A60416808
:1005C000012321F4807141604168C0F6007341EA63
:1005D0000E214160416821F040714160416841EA6B
:1005E0000C014160816821F400618160E1688268EA
:1005F00011438160A16A8268994222F07062826030
:10060000826813D122F0405119E000BF204600F06B
:1006100065F80020606484F83C00206CC006B9D501
:100620000120002184F83C1010BD00BF11438160FF
:10063000816821F040518160E16A826811438160E4
:10064000816821F0020181608168227E94F8203067
:1006500041EA42018160416883B141F40061416037
:1006600041684EF2000221F460414160616ACFF6B8
:10067000FF72436802EB4131194301E021F400614C
:100680004160C16A40F2000C21F47001C162E2696C
:100690006169CFF6F07CC36A0CEB02521A43C26266
:1006A000826822F40072826094F83020836843EA02
:1006B00042228260826822F480628260826842EA1A
:1006C0008121816000206064216C012262F30101BC
:1006D0002164002184F83C1010BD000080B586B074
:1006E00042F200010068C4F2010100228842059232
:1006F000049201D006B080BD43F630000092C4F2EF
:100700000200436943F480734361436903F48073D7
:100710000093009B0092036843F0010303600068AC
:1007200000F0010000900098012001900320CDE925
:10073000020201F5604001A900F02CF906B080BD6D
:1007400070B5044600680D468268520544BF806853
:100750005FEAC05038D400F001FA21680A689207B5
:1007600049D40646681C3CD0DDB90868800721D50D
:10077000086880073FD4086880071BD50868800791
:1007800039D40868800715D50868800733D408680D
:1007900080070FD508688007E7D52CE00868800738
:1007A00029D400F0DBF9801B2168A842F6D908683B
:1007B0008007F3D4206C40F004002064002084F80B
:1007C0003C00032070BD00BF206C40F0200020647E
:1007D000002084F83C00012070BD00BF086880073D
:1007E00009D40868800706D4086880075CBF0868D9
:1007F0005FEA8070F2D56FF012000860206C40F460
:1008000000702064886810F0405F01D1207E08B13C
:10081000002070BDC86A10F4700F02D088684005CF
:10082000F6D4206C20F480702064206CC004EFD4D7
:10083000206C40F001002064002070BD10B581B034
:100840000021009190F83C10012903D1022001B051
:1008500010BD00BF0468012180F83C10214651F80A
:10086000083FDB0729D10B684DF6836243F0010393
:100870000B6040F20803C2F200031B68C4F21B3293
:10088000A3FB02239A0C02EB42020092009AA2B14F
:10089000009A013A0092009A7AB1009A013A0092C5
:1008A000009A52B1009A013A0092009A2AB1009A35
:1008B000013A0092009A002AEAD10A68036CD20732
:1008C0000AD143F01001016400F1440101200A68DB
:1008D0001043086034E000BF40F2017223EA0202D4
:1008E00002F5807202646268520504D5026C01232D
:1008F00063F30D320264026C4FF0000C0023D2044B
:1009000044BF426C22F0060342F2000E436480F8BA
:100910003CC06FF02200C4F2010E2060DEF8040338
:10092000C00609D074450BD1DEF8080010F0405F16
:1009300006D14FF08040CAE7086810F0405FF8D059
:10094000002001B010BD000090F83510022909D137
:10095000052180F835100068016821F0010101606F
:10096000002070478021416501207047B0B50446E2
:1009700000F0F4F8054640F20000C2F200000078F2
:10098000611C18BF044400BF00F0E8F8401BA042FF
:10099000FAD3B0BD2DE9F04F82B000F13E4241F2F2
:1009A000000502F1FF77C4F2020507224FEAB726DD
:1009B000A84208BF0422042E38BF4FEAB7224FF0E6
:1009C000010A002400274FF00008009208E000BF51
:1009D000023708F10108202F04F1040400F0B4806C
:1009E0000E680AFA08F916EA090FF1D0D1F804A046
:1009F0000AF0030BABF10106012E17D8032286681B
:100A000002FA07FECA6826EA0E06BA40324382603E
:100A10004268CAF3001522EA090205FA08F54FEA0E
:100A2000480C6FEA0E062A4342600BE00322BA40EC
:100A3000D643BBF1030FBC4604D1BC464FF0030BB9
:100A400022E000BFC2688D68324005FA0CF52A43E7
:100A5000BBF1020FC26017D16FF0030202EA580225
:100A6000024404F01C030F25D2F820E005FA03FA33
:100A70000D692EEA0A0E05FA03F343EA0E03136228
:100A8000D1F804A00AF0030B02680BFA0CF3324011
:100A90001A431AF4403F4FF0010A026098D0002236
:100AA00043F644030192C4F202031A6843F6004E6F
:100AB00042F480421A601A68C4F2010E02F48042C5
:100AC0000192019A28F003024FF6084C7244CFF6C7
:100AD000FF7C52F80C3004F00C060F25B540AB43F8
:100AE000009D05FA06F6334342F80C30DEF8082084
:100AF0004B6842EA090643F60C4CDD0258BF22EA75
:100B00000906CEF80860C4F2010CDCF800209D0252
:100B100042EA090658BF22EA0906CCF80060DEF86E
:100B200004209D0342EA090658BF22EA0906CEF8CE
:100B30000460DEF80020DB0342EA090658BF22EA1F
:100B40000906CEF8006043E702B0BDE8F08F000070
:100B5000002A08BF090481617047000040F2A0101C
:100B6000C2F200000068704740F2000040F2A0119D
:100B7000C2F20000C2F2000100780A681044086066
:100B80007047000080B543F60040C4F202000168DF
:100B900041F400710160016841F480610160016805
:100BA00041F480710160032000F086F8002000F01D
:100BB00005F800F027F8002080BD000070B540F275
:100BC0000006C2F2000640F208013278C2F20001CB
:100BD0004FF47A730968B3FBF2F20446B1FBF2F109
:100BE000084600F09FFD0F2C4FF0010508D838B9DA
:100BF0004FF0FF3021460022002500F031F87460EC
:100C0000284670BD82B0002043F640010190C4F236
:100C100002014A6842F480424A604A6802F4804213
:100C20000192019A0090086840F0805008600868BE
:100C300000F0805000900098072002B000F03CB80F
:100C4000002848BF704700F01F01012202FA01F19D
:100C50004EF200124009CEF2000242F82010704716
:100C600010B54EF60C5CCEF2000CDCF80030C3F38D
:100C7000022E8EF00704042C28BF0424BEF10303C7
:100C80004FF0FF3E0EFA04F438BF0023A143994011
:100C90000EFA03F39A43114300F00F02043A624440
:100CA00009010C3200F16043B0F1FF3FC8BF03F50A
:100CB0006442117010BD00004EF60C51CEF20001DE
:100CC0000A684FF6FF031A4060F30A2242F0806080
:100CD00040F0FD70086070472DE9F041002800F0F9
:100CE0008B8043F60808C4F202080446D8F8F803DB
:100CF0000D4600F00700884207D288F8F853D8F86C
:100D0000F80300F00700A84276D12068810717D5C4
:100D1000410705D5D8F8001041F4E051C8F800109B
:100D2000010705D5D8F8001041F46041C8F800105B
:100D3000D8F80010A26821F0F0011143C8F80010A3
:100D4000C0073FD1D8F8F80300F00700A84207D940
:100D500088F8F853D8F8F80300F00700A8424BD100
:100D60002068410707D5D8F80010E26821F4E05167
:100D70001143C8F80010000708D5D8F80000216911
:100D800020F4604040EAC100C8F8000000F07CF8A0
:100D9000D8F8001042F26C32C1F30311C0F6000221
:100DA000515C40F2080220FA01F140F20400C2F264
:100DB00000000068C2F200021160FFF7FFFE002091
:100DC000BDE8F0816068811E022907D258F8081C2E
:100DD00089015CBF0120BDE8F08111E0012807D145
:100DE00058F8081C89035CBF0120BDE8F08107E0CA
:100DF00058F8081C890703D40120BDE8F08100BF22
:100E0000D8F8001021F003010843C8F80000FFF7EC
:100E1000A5FE064641F28837D8F80000616800F068
:100E20000C00B0EB810F8DD0FFF798FE801BB8420D
:100E3000F2D90320BDE8F08140F2080043F6080132
:100E4000C2F20000C4F202010068096842F27C327A
:100E5000C1F38221C0F60002515CC8407047000017
:100E600040F2080043F60801C2F20000C4F2020199
:100E70000068096842F27C32C1F34231C0F60002D8
:100E8000515CC8407047000010B543F60404C4F23A
:100E90000204606800F00C0142F200400829C0F230
:100EA000F40007D0042918BF10BD41F20020C0F2A1
:100EB0007A0010BD216801F03F02216823684902D1
:100EC000C3F3881106D4A1FB00010023FFF7D2F978
:100ED00007E000BF41F20020C0F27A004843B0FBB7
:100EE000F2F021680222C1F3014102EB4101B0FBA3
:100EF000F1F010BD2DE9F04182B000286AD004461F
:100F0000007843F60006C007C4F202060BD0B068B2
:100F100000F00C00042840F0A1803068800302D566
:100F20006068002856D0207880071AD5B06810F085
:100F30000C0F09D0B06800F00C00082840F0A88021
:100F40007068400200F1A4803068800702D5E06834
:100F500001283FD13068216920F0F80040EAC10043
:100F600030602078000739D4207840074ED4A56936
:100F70005DB3B06800F00C00082840F0BD80012D82
:100F800028D07068E16900F480028A4222D1216A87
:100F900000F03F028A421DD147F6C071626A0140EB
:100FA000B1EB821F16D1A26A0023CFF6FF7303EBC9
:100FB000C23200F440316FF30F0291420AD1E16A6C
:100FC00000F07060B0EB016F04D1002002B0BDE80A
:100FD000F08100BF012002B0BDE8F0816069002807
:100FE00040F20000C4F2472076D00121C0F8801EF4
:100FF000FFF7B4FD054600BF706F8007B4D4FFF75C
:10100000ADFD401B0228F7D9DDE000BF306C10F0C9
:1010100080580AD100200190306C40F0805030643C
:10102000306C00F080500190019847F20007C4F244
:1010300000073868C00541D4386840F480703860D3
:10104000FFF78CFD054600BF3868C00536D4FFF7B2
:1010500085FD401B0228F7D9B5E000BFB06800F05D
:101060000C00082803D1706840023FF556AF606855
:10107000B0F5803F07D0B0F5A02F40F08D803068EC
:1010800040F480203060306840F4803030608DE083
:10109000E068002852D00020C4F2472001210160FE
:1010A000FFF75CFD054600BF306880073FF552AF93
:1010B000FFF754FD401B0228F6D984E0A068012800
:1010C00005D005284ED1306F40F004003067306FF6
:1010D00040F0010030674FE00021C0F8801EFFF7AC
:1010E0003DFD0546706F80077FF53EAFFFF736FD8B
:1010F000401B0228F6D966E00027C4F247270020EB
:101100003866FFF72BFD022D05460BD130688001B4
:101110005ED5FFF723FD401B02284FF00300F5D9F1
:1011200054E700BF306880017FF54FAFFFF716FD31
:10113000401B02284FF00300F4D947E70020C4F217
:10114000472000210160FFF709FD05463068800750
:101150007FF507AFFFF702FD401B02284FF00300A9
:10116000F4D933E7316F002821F001013167316F85
:1011700021F0040131674DD0FFF7F0FC054641F244
:10118000883700BF306F800756D4FFF7E7FC401B5D
:10119000B842F7D917E000BF3168002821F4803148
:1011A0003160316821F4802131604FD0FFF7D6FCE7
:1011B000054600BF306880033FF5B5AEFFF7CEFCB3
:1011C000401B6428F6D9032002B0BDE8F08100BFBF
:1011D00004F11C052FCD08430021CFF6FF7140EA32
:1011E000821001EBC3316FF30F0140EA0560084341
:1011F000706001203866FFF7B1FC0446306880015A
:101200003FF5E3AEFFF7AAFC001B02284FF00300F6
:10121000F4D9DBE6FFF7A2FC054641F2883700BFB0
:10122000306F800708D5FFF799FC401BB8424FF09C
:101230000300F5D9CAE600BFB8F1000F7FF497AEFE
:10124000306C20F08050306491E600BFFFF786FCE0
:10125000054600BF306880037FF565AEFFF77EFC72
:10126000401B64284FF00300F4D9AFE6704700003C
:10127000B0B582B0044600684168826812F040034D
:1012800005D112F0010518BF11F0400512D19507E4
:1012900008D511F0800505D0616C204602B0BDE88C
:1012A000B040084712F4B07F18BF11F0200507D1F5
:1012B00002B0B0BD216C204602B0BDE8B040084786
:1012C000BBB194F85130032B08D100210191C168C2
:1012D000019180680190019802B0B0BD636D43F048
:1012E0000403636500230193C3680193836801933A
:1012F000019B12F0200302F4807203D18AB9626D5F
:10130000DAB9D5E7636D43F0010363650023019308
:1013100083680193036823F040030360019B002A64
:10132000EDD0626D42F0080262650022019282688F
:101330000192019A626D002ABAD04268890722F0B0
:10134000E00242604FF0010284F8512020D0416851
:1013500041F6D53521F003014160E06CC0F600058F
:1013600038B10565FFF7F0FA18B1606D40F0400044
:101370006065A06C00289BD00565FFF7E5FA0028A2
:101380003FF496AF606D40F04000606502B0B0BDC4
:10139000204602B0BDE8B040FFF768BF70B538B175
:1013A0000446406A30B10020206104F1140007E0D7
:1013B000012070BD6068B0F5827F03D004F11C008D
:1013C000002101600026A66294F8510020B9204651
:1013D00084F8506000F03CF8022084F8510094E852
:1013E0000F0001F48271056802F4044225F0400503
:1013F0000560114403F400622369114403F0020202
:101400006369114403F00102A369E569114403F41F
:101410000072114405F03802256A114405F080027B
:10142000A56A114305F4005211430160626A042168
:1014300001EA134102F0100211444160C16921F434
:101440000061C1610120666584F85100304670BDBD
:1014500080B586B0016843F60040C4F200008142C6
:1014600002D006B080BD00BF002143F630020191DA
:10147000C4F20202136900F5E63043F4004313613D
:10148000136903F400430193019B0191136843F036
:1014900004031360126802F004020192019A4FF4EF
:1014A000A05201920222CDE90221032104910621DA
:1014B000059101A9FFF76EFA332000210022FFF702
:1014C000CFFB3320FFF7BCFB06B080BD2DE9F04316
:1014D00083B0044690F85000012803D1022003B0E5
:1014E000BDE8F0834FF001091D4616460F4684F80B
:1014F0005090FFF733FB94F85110012972D18046C8
:10150000002F4FF0010018BF002E00F0D6800320FE
:10151000002184F8510061652763A686E686A163F1
:10152000A187E187A0682164B0F5004F206861645D
:1015300007D1016821F040010160016841F4804158
:1015400001600168490603D4016841F0400101606F
:101550006168731EE268B1FA81F1B3FA83F3490955
:101560005B09B2F5006F41EA03013DD131B137F8B3
:10157000021BC1602763E18E0139E186E18E0029FB
:101580006CD0691C1BD000BF8168890706D4FFF7A7
:10159000E5FAA0EB0800A84208D3C1E0216B31F8BE
:1015A000022BC2602163E08E0138E086E08E0028C5
:1015B00054D0206881688907E9D5EFE72068816801
:1015C000890703D4FFF7CAFA08E000BF216B31F89E
:1015D000022BC2602163E08E0138E086E08E002895
:1015E000ECD13BE0022068E039B139780173206B1F
:1015F00001302063E08E0138E086E08E70B3681C15
:101600000BD11BE0216B09780173206B0130206343
:10161000E08E0138E086E08E00B32068816889079B
:10162000F0D4FFF79BFAA0EB0800A842F3D3032005
:1016300043E000BFFFF792FAE08E78B1206881683E
:101640008907F7D5216B09780173206B013020637E
:10165000E08E0138E086E08E0028EFD140F20800ED
:10166000C2F20000006849F68171C1F25E61A0FB20
:101670000101480D4FF47A71484302906068B0F55B
:10168000827F23D1204680212A46434600F0A8FAD3
:1016900028B1606D40F02000606520206065A06882
:1016A00038B9002001902068C168019180680190DC
:1016B0000198606D002818BF0120002184F8519026
:1016C00084F8501003B0BDE8F08300BF02980028F2
:1016D000E5D0029801380290206880680006DED5C7
:1016E00002980028DBD002980138029020688068B8
:1016F0000006D4D502980028D1D002980138029073
:10170000206880680006CAD502980028C7D00298D1
:1017100001380290206880680006D7D4BFE700BF78
:101720000320CAE7411E0020B0EB116F1CBF01204F
:1017300070474EF21002CEF2000251604EF6235175
:10174000CEF20001F0230B7007219060116070470A
:1017500010B590F83C20012A4FF002023ED080F8EC
:101760003D200268D2F804E0D2F808C00C682EF0E0
:101770007003234340F6FF34C4F20004A2425360D6
:1017800010DCB2F1804F1ED040F20043C4F20003DF
:101790009A4218D040F60003C4F200039A4212D0D5
:1017A00016E000BF40F60043C4F200039A420AD09C
:1017B00044F20003C4F201039A4204D00023C4F2AD
:1017C00001039A4204D149682CF0800319439160C7
:1017D0000121002280F83D1080F83C20104610BD09
:1017E000002804BF0120704710B5044690F83D0062
:1017F00028B9002084F83C00204600F08FF8022031
:1018000084F83D00206840F2FF730268C4F20003D0
:1018100040F2000C9842C4F2010C1DDD40F60001BC
:10182000C4F20001884220D060451ED040F600413D
:10183000C4F20001884218D04FF6FF71C4F20001D3
:1018400088421CDC984225DCB0F1804F3AD040F24F
:101850000041C4F2000133E0B0F1804F05D040F206
:101860000041C4F200018842E6D1A16822F0700272
:101870000A434FF6FF71C4F200018842E2DD44F2F0
:10188000FF31C4F20101884210DC60451AD044F2F5
:10189000000113E040F60001C4F20001884211D0BB
:1018A00040F60041C4F200010AE000BF44F6000126
:1018B000C4F20101884205D044F20041C4F20101A2
:1018C000884203D1216922F440720A43A36922F0BD
:1018D0008001D4F804E0E268194360450160C26207
:1018E000C0F828E002D16169CCF8301001214161D3
:1018F000002084F8461084F83E1084F83F1084F8E5
:10190000401084F8411084F8421084F8431084F8A1
:10191000441084F8451084F83D1010BD81B0006873
:1019200040F20041C4F20001884201D001B070478A
:101930000020009043F64000C4F20200016841F02C
:1019400002010160006800F002000090009801B000
:101950007047000080B590F83C20012A4FF0020249
:1019600000F0C28080F83D20D0F800C04FF67772BA
:10197000DCF8083023EA0202CCF808200B684F2B71
:1019800028DC1F2B44DD202B45D0302B43D0402BAF
:1019900040F0AC80D1F804E0C968DCF82030DCF815
:1019A000202022F00102CCF82020DCF8182022F0C0
:1019B000F00242EA011123F00A0242EA0E02CCF8D8
:1019C0001810CCF82020DCF8081041F0470121F075
:1019D000300180E06F2B27DDB3F5005F48D0B3F511
:1019E000805F7AD0702B40F08180D1E901E3C96833
:1019F000DCF8082043EA0E0322F47F4243EA012187
:101A00001143CCF80810DCF8081041F0770162E0CF
:101A10000BB1102B6AD1DCF8081021F070011943CA
:101A200041F0070157E000BF502B35D0602B5DD14E
:101A3000D1F804E0C968DCF8203023F01003CCF8BA
:101A40002030DCF81830DCF8202023F4704322F03A
:101A5000A00243EA013142EA0E12CCF81810CCF889
:101A60002020DCF8081041F0670121F0100132E07D
:101A7000D1E901E3C968DCF8082043EA0E0322F447
:101A80007F4243EA01211143CCF80810DCF808102A
:101A900041F480411FE000BFD1F804E0C968DCF8E0
:101AA0002030DCF8202022F00102CCF82020DCF8E5
:101AB000182022F0F00242EA011123F00A0242EA61
:101AC0000E02CCF81810CCF82020DCF8081041F0F9
:101AD000570121F02001CCF808100022012180F8E4
:101AE0003D10002180F83C10104680BD0122F5E732
:101AF000002804BF0120704710B5044690F83D004F
:101B000028B9002084F83C00204600F021F8242069
:101B100084F83D002068C16821F40051C16020466E
:101B200000F0DEF82068016921F49041016141690B
:101B300021F02A014161C16841F40051C1600020D7
:101B40002021206484F83D1084F83E1010BD000070
:101B500080B586B0016844F20040C4F200008142C2
:101B600002D006B080BD00BF002143F630020191D3
:101B7000C4F20202136900F5DE3043F4003313614E
:101B8000136903F400330193019B0191136843F03F
:101B900001031360126802F001020192019A0C2203
:101BA00001920222CDE9022104910721059101A9A8
:101BB000FEF7F0FE06B080BDFEE70000FEE7000085
:101BC000FEE700007047000040F20010C2F2000083
:101BD000FFF74EBB806B0021C187C186FFF746BB74
:101BE0002DE9F04182B01E4690460D460446FEF7B0
:101BF000B5FF301A00EB0807FEF7B0FF40F208010E
:101C0000C2F200010968C1F3CB3179430191216827
:101C10008A682A40AA4227D1064618F101001FD03F
:101C2000FEF79CFF801BB84222D201980199002840
:101C3000A1F1010101912168896808BF074601EA05
:101C40000500A842ECD00FE088682840A8420BD1DC
:101C500088682840A84207D188682840A84203D154
:101C600088682840A842EFD0002002B0BDE8F0818B
:101C7000D4E900014268B1F5827F22F0E0024260BF
:101C80000AD1A168B1F5004F02D0B1F5806F03D140
:101C9000016821F040010160A16AB1F5005F07D140
:101CA000016821F400510160016841F400510160B4
:101CB000012084F85100002084F85000032002B075
:101CC000BDE8F08170470000FEF74EBF4EF6885029
:101CD000CEF20000016841F470010160704700001D
:101CE00010B504460068D4E902C22369016921F4F1
:101CF000405111430161626943EA0C01E3691143F8
:101D0000C268194349F20C639A431143C1604169A7
:101D1000A26921F4407141F20043114340F4806212
:101D2000C4F201039A42416102D1FFF799F801E040
:101D3000FFF782F8E16963681922B1F5004FA0FB53
:101D400002011FD15A00DB0FFEF794FA48F21F512F
:101D5000C5F2EB11A0FB01235A096FF0630302FBEC
:101D60000300322303EBC000A0FB01014FF4F87025
:101D700000EA111000EB0210C1F34211084421687F
:101D8000886010BD9A009B0FFEF774FA48F21F514D
:101D9000C5F2EB11A0FB01235A096FF0630302FBAC
:101DA0000300322303EB0010A0FB0101F02000EA46
:101DB000511000EB0210C1F3431108442168886000
:101DC00010BD0000FEE7000094B043F6300640F678
:101DD0000004C4F20206C4F20204FEF7D3FE08AD0A
:101DE000281D2C21FEF7BEFA00270697CDE90477BF
:101DF000CDE9027701973069022240F080503061CE
:101E0000306900F080500190019846F6000001977B
:101E1000CFF6FE70215862F38F312150205800F424
:101E200040400190019801200B9010200C90284612
:101E300008920E97FFF75EF820B1EFF3108072B6AC
:101E4000FEE700BF0F20CDE902074FF48050CDE937
:101E5000050702A800210497FEF73EFF20B1EFF32B
:101E6000108072B6FEE700BF0027CDE90B7702971E
:101E70003068A4F5006540F004003060306820212F
:101E800000F004000290029802973068002240F0AF
:101E90008000306030684FF0200800F08000029031
:101EA00002980297306840F001003060306800F01E
:101EB0000100029002980297306840F00200306002
:101EC000306800F00200029002982846FEF740FEBB
:101ED00020464FF4006100224FF40069FEF738FEFF
:101EE0004FF4005008904FF4041008AECDE90907F4
:101EF00020463146FEF74EFDCDF820804FF0010818
:101F000028463146CDE909870B97FEF743FD0220AD
:101F1000CDE90A0720463146CDE90898FEF73AFD9B
:101F200040F2B8000122A4F56841C2F20000C0F6F8
:101F300000720B97077680F82070C0E90A27C0F876
:101F40001C8080F83070C0E90017C0E90277C0E952
:101F50000478FEF713FB28B1EFF3108072B600BFD0
:101F6000FEE700BF40F2B800C2F2000008A9CDE9C8
:101F700008780A97FEF75EFA20B1EFF3108072B688
:101F8000FEE700BF40F20045C4F2000540F2001039
:101F900005F56051C2F200004FF4827200264FF442
:101FA000007380E846000A21C0E90366C0E90563C2
:101FB000C661C0E90866C0E90A61FFF7EFF928B118
:101FC000EFF3108072B600BFFEE700BF40F2700969
:101FD000C2F2000905F58041484640F8041F4FF45D
:101FE000E1310C22C0E90116C0E90366C0E905260B
:101FF000C661FFF77DFD28B1EFF3108072B600BF18
:10200000FEE700BF40F258100021C2F2000043F684
:102010007F6263230B91CDE90911CDE90211C0E97B
:102020000052C0E9021301618161FFF7D9FB28B1B9
:10203000EFF3108072B600BFFEE700BF4FF4805090
:10204000089040F25810C2F2000008A9FFF782FC85
:1020500020B1EFF3108072B6FEE700BF40F25810D7
:10206000C2F2000002A9FFF773FB28B1EFF3108062
:1020700072B600BFFEE700BF6420FEF777FC00F0F9
:10208000B7F89FED598A9FED599A40F20017C2F2B6
:10209000000700BF40F2B805C2F200052846FEF76F
:1020A000CDFB28464FF6FF71FEF74AFB2846FEF7A8
:1020B00061FA00EE100AB8EE400A80EE081A89EDC7
:1020C000000A46F26764C6F266642546002221EEE5
:1020D000090ABDEEC00A10EE10BA5BFB04F08110D5
:1020E00001EBD07840F6000408EB8800C4F202044B
:1020F000ABEB400A20464FF40061FEF729FD0120BA
:1021000008AE8DF820003846314601224FF6FF73A5
:10211000FFF7DCF93846314601224FF6FF738DF8A0
:1021200020A0FFF7D3F920464FF400610122FEF70B
:102130000FFD58FB05F0811001EBD07000EB800023
:10214000AA46A8EB400520464FF400610022FEF7A6
:10215000FFFC02208DF820003846314601224FF660
:10216000FF73FFF7B3F93846314601224FF6FF738C
:102170008DF82050FFF7AAF920464FF400610122A4
:10218000FEF7E6FC48F21F50C5F2EB105BFB00F0D7
:10219000411101EBD07050FB0AF18A1002EBD171B2
:1021A00001EB8101A0EB410520464FF400610022C4
:1021B000FEF7CEFC03208DF8200038463146012280
:1021C0004FF6FF73FFF782F93846314601224FF68A
:1021D000FF738DF82050FFF779F920464FF4006126
:1021E0000122FEF7B5FC55E700F07F4500C07944B9
:1021F0002DE9F04381B040F60004C4F20204204609
:102200004FF4006100224FF00008FEF7A1FC40F2FD
:1022100000150920C2F200050DF103068DF8030038
:102220002846314601224FF6FF734FF00109FFF7B0
:102230004DF9FF208DF803002846314601224FF664
:10224000FF73FFF743F920464FF400610122FEF7C8
:102250007FFC20464FF400610022FEF779FC0A2043
:102260008DF803002846314601224FF6FF73FFF731
:102270002DF90F272846314601224FF6FF738DF8BE
:102280000370FFF723F920464FF400610122FEF7A7
:102290005FFC20464FF400610022FEF759FC0B2042
:1022A0008DF803002846314601224FF6FF73FFF7F1
:1022B0000DF902208DF803002846314601224FF621
:1022C000FF73FFF703F920464FF400610122FEF788
:1022D0003FFC20464FF400610022FEF739FC0C2041
:1022E0008DF803002846314601224FF6FF73FFF7B1
:1022F000EDF82846314601224FF6FF738DF8039022
:10230000FFF7E4F820464FF400610122FEF720FCBD
:1023100020464FF400610022FEF71AFC28463146A1
:1023200001224FF6FF738DF80370FFF7CFF82846B0
:10233000314601224FF6FF738DF80380FFF7C6F890
:1023400020464FF400610122FEF702FC01B0BDE817
:10235000F083F1EE100A4FF6FF71C0F2C03120EAAF
:10236000010040F04070E1EE100A704700000000EC
:102370000000000001020304060708090000000035
:1023800001020304A8230008000000201000000040
:10239000D0010008B82300081000002098070000B2
:1023A000EC01000800000000010000001000000027
:0823B0000024F400000000000D
:040000050800019559
:00000001FF
