:020000040800F2
:100000000807002035020008051900082516000819
:10001000011900082D040008051A0008000000005E
:100020000000000000000000000000000D190008A2
:100030003104000800000000091900081119000827
:100040004F0200084F0200084F0200084F0200084C
:100050004F0200084F0200084F0200084F0200083C
:100060004F0200084F0200084F0200084F0200082C
:100070004F0200084F0200084F0200084F0200081C
:100080004F0200084F0200084F0200080000000065
:100090000000000000000000000000004F02000807
:1000A0004F0200084F0200084F0200084F020008EC
:1000B0004F0200084F0200084F0200084F020008DC
:1000C0004F0200084F0200084F0200084F020008CC
:1000D0004F0200084F0200084F0200080000000015
:1000E0004F0200084F0200084F0200080000000005
:1000F0000000000000000000000000004F020008A7
:10010000000000004F0200084F0200084F020008E4
:1001100000000000000000000000000000000000DF
:100120004F0200084F0200084F0200084F0200086B
:100130004F02000800000000000000000000000066
:100140000000000000000000000000004F02000856
:100150004F0200084F0200084F0200084F0200083B
:100160004F0200084F0200080000000000000000DD
:10017000000000000000000000000000000000007F
:10018000000000004F020008000000000000000016
:100190004F02000800F002F800F03CF80AA090E8D6
:1001A000000C82448344AAF10107DA4501D100F032
:1001B00031F8AFF2090EBAE80F0013F0010F18BFC3
:1001C000FB1A43F001031847041F0000241F00001E
:1001D000103A24BF78C878C1FAD8520724BF30C873
:1001E00030C144BF04680C60704700000023002445
:1001F00000250026103A28BF78C1FBD8520728BF37
:1002000030C148BF0B6070471FB501F049FF1FBDEB
:1002100010B510BD00F0D5F81146FFF7F5FF01F05D
:10022000F3FB00F0F3F803B4FFF7F2FF03BC00F0B8
:10023000F7F800000948804709480047FEE7FEE755
:10024000FEE7FEE7FEE7FEE7FEE7FEE7FEE7FEE786
:1002500004480549054A064B704700001519000877
:10026000950100080801002008070020080300206D
:100270000803002053EA020C00F069802DE9F04BDE
:100280004FF00006002B1FBFB3FA83F503FA05F405
:1002900024FA05F65E4012BF1643B2FA82F502FA5E
:1002A00005F4C5F120051EBF22FA05FC44EA0C0442
:1002B000203556EA044C4FEA144418BF641C4FF032
:1002C00000084FF00009904271EB030C39D300296C
:1002D00019BFB1FA81F701FA07F6B0FA80F700FA10
:1002E00007F6C7F120071EBF20FA07FC46EA0C06F6
:1002F0002037B6FBF4FCA7EB0507103F07F01F0BF8
:10030000CBF120062CFA06F60CFA0BFB44BFB346E1
:100310000026202FA4BF5E464FF0000B5BEA060CC0
:1003200008BF4FF0010B19EB0B0948EB0608ABFBBC
:10033000027C06FB02CC0BFB03CCC01B71EB0C0157
:10034000C1E70B46024641464846BDE8F08B13B56F
:10035000084318BF4FF0FF300146AFF30080BDE8FF
:100360001C4070474FF0000200B513469446964675
:10037000203922BFA0E80C50A0E80C50B1F12001B8
:10038000BFF4F7AF090728BFA0E80C5048BF0CC066
:100390005DF804EB890028BF40F8042B08BF7047C4
:1003A00048BF20F8022B11F0804F18BF00F8012B36
:1003B0007047704770477047004870471000002032
:1003C00070477546FFF7F8FFAE460500694653468D
:1003D00020F00700854618B020B5FFF739FFBDE8CB
:1003E00020404FF000064FF000074FF000084FF09C
:1003F000000BAC46ACE8C009ACE8C009ACE8C009E9
:10040000ACE8C00921F007018D46704710B50446DD
:10041000AFF300802046BDE81040FFF704BF0000A6
:1004200001491820ABBEFEE726000200FEE70000EF
:10043000704700002DE9F04F82B000F13E4241F2DA
:10044000000502F1FF77C4F2020507224FEAB72642
:10045000A84208BF0422042E38BF4FEAB7224FF04B
:10046000010A002400274FF00008009208E000BFB6
:10047000023708F10108202F04F1040400F0B480D1
:100480000E680AFA08F916EA090FF1D0D1F804A0AB
:100490000AF0030BABF10106012E17D80322866880
:1004A00002FA07FECA6826EA0E06BA4032438260A4
:1004B0004268CAF3001522EA090205FA08F54FEA74
:1004C000480C6FEA0E062A4342600BE00322BA4052
:1004D000D643BBF1030FBC4604D1BC464FF0030B1F
:1004E00022E000BFC2688D68324005FA0CF52A434D
:1004F000BBF1020FC26017D16FF0030202EA58028B
:10050000024404F01C030F25D2F820E005FA03FA98
:100510000D692EEA0A0E05FA03F343EA0E0313628D
:10052000D1F804A00AF0030B02680BFA0CF3324076
:100530001A431AF4403F4FF0010A026098D000229B
:1005400043F644030192C4F202031A6843F6004ED4
:1005500042F480421A601A68C4F2010E02F480422A
:100560000192019A28F003024FF6084C7244CFF62C
:10057000FF7C52F80C3004F00C060F25B540AB435D
:10058000009D05FA06F6334342F80C30DEF80820E9
:100590004B6842EA090643F60C4CDD0258BF22EADA
:1005A0000906CEF80860C4F2010CDCF800209D02B8
:1005B00042EA090658BF22EA0906CCF80060DEF8D4
:1005C00004209D0342EA090658BF22EA0906CEF834
:1005D0000460DEF80020DB0342EA090658BF22EA85
:1005E0000906CEF8006043E702B0BDE8F08F0000D6
:1005F000002A08BF090481617047000040F2001022
:10060000C2F200000068704740F2000040F20011A2
:10061000C2F20000C2F2000100780A6810440860CB
:100620007047000080B543F60040C4F20200016844
:1006300041F400710160016841F48061016001686A
:1006400041F480710160032000F074F80F2000F085
:1006500005F800F027F8002080BD000070B540F2DA
:100660000006C2F2000640F208013278C2F2000130
:100670004FF47A730968B3FBF2F20446B1FBF2F16E
:10068000084600F009FB0F2C4FF0010508D838B9D7
:100690004FF0FF3021460022002500F01FF8746063
:1006A000284670BD82B0002043F640010190C4F29C
:1006B00002014A6842F480424A604A6802F4804279
:1006C0000192019A0090086840F080500860086824
:1006D00000F080500090009802B0704710B54EF6C0
:1006E0000C5CCEF2000CDCF80030C3F3022E8EF06E
:1006F0000704042C28BF0424BEF103034FF0FF3E7F
:100700000EFA04F438BF0023A14399400EFA03F314
:100710009A43114300F00F02043A624409010C327B
:1007200000F16043B0F1FF3FC8BF03F564421170B0
:1007300010BD00004EF60C51CEF200010A684FF6D3
:10074000FF031A4060F30A2242F0806040F0FD701F
:10075000086070472DE9F041002800F08B8043F6D7
:100760000808C4F202080446D8F8F8030D4600F061
:100770000700884207D288F8F853D8F8F80300F049
:100780000700A84276D12068810717D5410705D513
:10079000D8F8001041F4E051C8F80010010705D561
:1007A000D8F8001041F46041C8F80010D8F80010E3
:1007B000A26821F0F0011143C8F80010C0073FD132
:1007C000D8F8F80300F00700A84207D988F8F853D2
:1007D000D8F8F80300F00700A8424BD12068410781
:1007E00007D5D8F80010E26821F4E0511143C8F8A9
:1007F0000010000708D5D8F80000216920F46040F7
:1008000040EAC100C8F8000000F054F8D8F8001021
:1008100042F2BA02C1F30311C0F60002515C40F289
:10082000080220FA01F140F20400C2F20000006860
:10083000C2F200021160FFF711FF0020BDE8F08155
:100840006068811E022907D258F8081C89015CBF24
:100850000120BDE8F08111E0012807D158F8081CFB
:1008600089035CBF0120BDE8F08107E058F8081C4F
:10087000890703D40120BDE8F08100BFD8F800103B
:1008800021F003010843C8F80000FFF7B7FE064651
:1008900041F28837D8F80000616800F00C00B0EB36
:1008A000810F8DD0FFF7AAFE801BB842F2D903203A
:1008B000BDE8F08110B543F60404C4F20204606898
:1008C00000F00C0008280BD0042819BF42F20040A9
:1008D000C0F2F40047F64000C0F27D1010BD00BF2A
:1008E000206821682368490247F64001C0F27D1163
:1008F00000F03F02C3F388105CBF42F20041C0F237
:10090000F401A1FB00010023FFF7B4FC21680222DF
:10091000C1F3014102EB4101B0FBF1F010BD000059
:100920002DE9F04182B000286AD00446007843F6F1
:100930000006C007C4F202060BD0B06800F00C003D
:10094000042840F0A1803068800302D56068002848
:1009500056D0207880071AD5B06810F00C0F09D057
:10096000B06800F00C00082840F0A88070684002D1
:1009700000F1A4803068800702D5E06801283FD1EB
:100980003068216920F0F80040EAC100306020782A
:10099000000739D4207840074ED4A5695DB3B0680C
:1009A00000F00C00082840F0BD80012D28D07068B0
:1009B000E16900F480028A4222D1216A00F03F02FC
:1009C0008A421DD147F6C071626A0140B1EB821FB5
:1009D00016D1A26A0023CFF6FF7303EBC23200F4F4
:1009E00040316FF30F0291420AD1E16A00F070606A
:1009F000B0EB016F04D1002002B0BDE8F08100BF70
:100A0000012002B0BDE8F0816069002840F20000DA
:100A1000C4F2472076D00121C0F8801EFFF7EEFD1A
:100A2000054600BF706F8007B4D4FFF7E7FD401B99
:100A30000228F7D9DDE000BF306C10F080580AD1F1
:100A400000200190306C40F080503064306C00F039
:100A500080500190019847F20007C4F200073868FF
:100A6000C00541D4386840F480703860FFF7C6FD97
:100A7000054600BF3868C00536D4FFF7BFFD401BF0
:100A80000228F7D9B5E000BFB06800F00C000828D4
:100A900003D1706840023FF556AF6068B0F5803F03
:100AA00007D0B0F5A02F40F08D80306840F4802052
:100AB0003060306840F4803030608DE0E0680028BD
:100AC00052D00020C4F2472001210160FFF796FDBB
:100AD000054600BF306880073FF552AFFFF78EFD37
:100AE000401B0228F6D984E0A068012805D005281B
:100AF0004ED1306F40F004003067306F40F001009D
:100B000030674FE00021C0F8801EFFF777FD0546F3
:100B1000706F80077FF53EAFFFF770FD401B022826
:100B2000F6D966E00027C4F2472700203866FFF7B1
:100B300065FD022D05460BD1306880015ED5FFF7BB
:100B40005DFD401B02284FF00300F5D954E700BFBC
:100B5000306880017FF54FAFFFF750FD401B022842
:100B60004FF00300F4D947E70020C4F247200021EA
:100B70000160FFF743FD0546306880077FF507AF4A
:100B8000FFF73CFD401B02284FF00300F4D933E788
:100B9000316F002821F001013167316F21F004012C
:100BA00031674DD0FFF72AFD054641F2883700BF77
:100BB000306F800756D4FFF721FD401BB842F7D9AC
:100BC00017E000BF3168002821F4803131603168BE
:100BD00021F4802131604FD0FFF710FD054600BFA2
:100BE000306880033FF5B5AEFFF708FD401B642871
:100BF000F6D9032002B0BDE8F08100BF04F11C0566
:100C00002FCD08430021CFF6FF7140EA821001EB9F
:100C1000C3316FF30F0140EA0560084370600120A3
:100C20003866FFF7EBFC0446306880013FF5E3AE21
:100C3000FFF7E4FC001B02284FF00300F4D9DBE6C9
:100C4000FFF7DCFC054641F2883700BF306F8007B4
:100C500008D5FFF7D3FC401BB8424FF00300F5D98D
:100C6000CAE600BFB8F1000F7FF497AE306C20F0F9
:100C70008050306491E600BFFFF7C0FC054600BF1E
:100C8000306880037FF565AEFFF7B8FC401B642831
:100C90004FF00300F4D9AFE6411E0020B0EB116F16
:100CA0001CBF012070474EF21002CEF200025160CC
:100CB0004EF62351CEF20001F0230B700721906015
:100CC0001160704710B590F83C20012A4FF00202E5
:100CD0003ED080F83D200268D2F804E0D2F808C087
:100CE0000C682EF07003234340F6FF34C4F2000476
:100CF000A242536010DCB2F1804F1ED040F200439C
:100D0000C4F200039A4218D040F60003C4F2000374
:100D10009A4212D016E000BF40F60043C4F200032E
:100D20009A420AD044F20003C4F201039A4204D06A
:100D30000023C4F201039A4204D149682CF08003D5
:100D4000194391600121002280F83D1080F83C2079
:100D5000104610BD002804BF0120704710B504469E
:100D600090F83D0028B9002084F83C00204600F0AF
:100D70008FF8022084F83D00206840F2FF7302687B
:100D8000C4F2000340F2000C9842C4F2010C1DDDD5
:100D900040F60001C4F20001884220D060451ED018
:100DA00040F60041C4F20001884218D04FF6FF71AE
:100DB000C4F2000188421CDC984225DCB0F1804F6F
:100DC0003AD040F20041C4F2000133E0B0F1804F6C
:100DD00005D040F20041C4F200018842E6D1A1688A
:100DE00022F070020A434FF6FF71C4F200018842FC
:100DF000E2DD44F2FF31C4F20101884210DC6045BB
:100E00001AD044F2000113E040F60001C4F20001E0
:100E1000884211D040F60041C4F200010AE000BF50
:100E200044F60001C4F20101884205D044F20041B9
:100E3000C4F20101884203D1216922F440720A43BD
:100E4000A36922F08001D4F804E0E2681943604508
:100E50000160C262C0F828E002D16169CCF83010AC
:100E600001214161002084F8461084F83E1084F886
:100E70003F1084F8401084F8411084F8421084F840
:100E8000431084F8441084F8451084F83D1010BDD8
:100E900080B586B0006840F20041C4F2000188428B
:100EA0002ED0B0F1804F3AD1002043F6400101909E
:100EB000C4F202010A6842F001020A600A6802F004
:100EC00001020192019A019051F8100C40F00100CA
:100ED00041F8100C51F8100C022100F001000190B3
:100EE000019801200190CDE904100020CDE9021104
:100EF000C4F2020001A9FFF79DFA06B080BD00BF51
:100F00000020019043F64000C4F20200016841F065
:100F100002010160006800F002000190019806B033
:100F200080BD000090F83D1001291CBF01207047D2
:100F3000022180F83D10006840F6FF32C168C4F21B
:100F40000002904241F00101C1600FDCB0F1804F1E
:100F50001DD040F20041C4F20001884217D040F693
:100F60000001C4F20001884211D017E040F60041B0
:100F7000C4F2000188420AD044F20001C4F2010127
:100F8000884204D00021C4F20101884206D1816860
:100F900001F00701062904BF00207047016841F0F5
:100FA000010101600020704780B590F83C20012AC3
:100FB0004FF0020200F0C28080F83D20D0F800C05F
:100FC0004FF67772DCF8083023EA0202CCF80820EA
:100FD0000B684F2B28DC1F2B44DD202B45D0302BFA
:100FE00043D0402B40F0AC80D1F804E0C968DCF875
:100FF0002030DCF8202022F00102CCF82020DCF8A0
:10100000182022F0F00242EA011123F00A0242EA1B
:101010000E02CCF81810CCF82020DCF8081041F0B3
:10102000470121F0300180E06F2B27DDB3F5005F31
:1010300048D0B3F5805F7AD0702B40F08180D1E941
:1010400001E3C968DCF8082043EA0E0322F47F427A
:1010500043EA01211143CCF80810DCF8081041F0F4
:10106000770162E00BB1102B6AD1DCF8081021F097
:101070007001194341F0070157E000BF502B35D0F4
:10108000602B5DD1D1F804E0C968DCF8203023F092
:101090001003CCF82030DCF81830DCF8202023F4E2
:1010A000704322F0A00243EA013142EA0E12CCF86A
:1010B0001810CCF82020DCF8081041F0670121F06E
:1010C000100132E0D1E901E3C968DCF8082043EA05
:1010D0000E0322F47F4243EA01211143CCF80810A9
:1010E000DCF8081041F480411FE000BFD1F804E0B3
:1010F000C968DCF82030DCF8202022F00102CCF8AE
:101100002020DCF8182022F0F00242EA011123F03E
:101110000A0242EA0E02CCF81810CCF82020DCF8C3
:10112000081041F0570121F02001CCF808100022EE
:10113000012180F83D10002180F83C10104680BD50
:101140000122F5E780B586B0016840F20040C4F2A4
:101150000000814202D006B080BD00BF002143F6EE
:1011600030020191C4F20202136800F5FE3043F030
:1011700001031360126802F001020192019A4022F9
:1011800001920222CDE90221CDE9041201A9FFF763
:1011900051F906B080BD00002DE9F04390F83C30D5
:1011A000012B04BF0220BDE8F0834FEAB202032AFC
:1011B0003AD8DFE802F003417DB700BF036800269C
:1011C0001A6AC4F2010622F001021A621D6A1A4666
:1011D0005C6852F818CFB3428E68D1F800E025F071
:1011E000020545EA06050CD1CE68D1E9057824F45C
:1011F000407425F00C0526F004063C43354344EAD0
:1012000008042CF0730747EA0E075C609F614F6883
:1012100009695F631D629F6947F008079F619F69C5
:1012200027F004079F61ACE00121002280F83C20F8
:101230000846BDE8F08300BF036800261A6AC4F2BE
:10124000010622F010021A621D6A1A46D3F804C081
:1012500052F8184FB3428E68D1F800E025F020050F
:1012600045EA06150FD1CE68D1E905986FF0400721
:1012700007EA06162CF4406725F0C00547EA8907FF
:10128000354347EA880C24F4E64444EA0E27C3F8C1
:1012900004C09F614F6809699F631D629F6947F49D
:1012A00000679F619F6927F480679F6168E000BFC6
:1012B000036800261A6AC4F2010622F480721A62D8
:1012C0001D6A1A46D3F804C052F81CEFB3428E6868
:1012D0000C6825F4007545EA06250FD1CE68D1E9E2
:1012E0000598360240F2FF47BE432CF4405725F4E0
:1012F000406547EA0917354347EA081C2EF0730793
:101300002743C3F804C0DF614F680969DF631D62CA
:10131000DF6947F00807DF61DF6927F00407DF6155
:101320002FE000BF036800271A6AC4F2010722F405
:1013300080521A621A46D3F820C05D6852F81C4FDA
:10134000D1F800E08E68BB4204D14F6925F4804596
:1013500045EA87152CF4005747EA063724F4E64699
:1013600046EA0E265D60DE614E6809691E641F62F2
:10137000DF6947F40067DF61DF6927F48067DF61B9
:1013800009021368194311600021002280F83C20F3
:101390000846BDE8F0830000002804BF0120704724
:1013A00010B5044690F83D0028B9002084F83C00B0
:1013B000204600F08FF8022084F83D00206840F2BB
:1013C000FF730268C4F2000340F2000C9842C4F2BA
:1013D000010C1DDD40F60001C4F20001884220D05E
:1013E00060451ED040F60041C4F20001884218D08A
:1013F0004FF6FF71C4F2000188421CDC984225DCE4
:10140000B0F1804F3AD040F20041C4F2000133E025
:10141000B0F1804F05D040F20041C4F20001884293
:10142000E6D1A16822F070020A434FF6FF71C4F2C0
:1014300000018842E2DD44F2FF31C4F2010188423A
:1014400010DC60451AD044F2000113E040F60001C0
:10145000C4F20001884211D040F60041C4F20001FC
:101460000AE000BF44F60001C4F20101884205D041
:1014700044F20041C4F20101884203D1216922F4FF
:1014800040720A43A36922F08001D4F804E0E268C4
:10149000194360450160C262C0F828E002D1616969
:1014A000CCF8301001214161002084F8461084F806
:1014B0003E1084F83F1084F8401084F8411084F8FE
:1014C000421084F8431084F8441084F8451084F8DE
:1014D0003D1010BD7047000041B1082910D004290B
:1014E00014BF00F1410200F13F020BE090F83E20F2
:1014F000012A1CBF01207047022280F83E2013E021
:1015000000F140021278012A1CBF0120704702221C
:10151000082907D0042914BF80F8412080F83F2013
:1015200002E000BF80F84020006801F01F010122A6
:10153000036A8A4023EA02010162036A4421C4F279
:1015400001011A43A1F144039842026216D040F609
:10155000FF31C4F2000188421ADCB0F1804F28D07C
:1015600040F20041C4F20001884222D040F600015E
:10157000C4F2000188421CD022E000BF0A6842F495
:1015800000420A6040F6FF31C4F200018842E4DD07
:1015900040F60041C4F2000188420AD044F2000142
:1015A000C4F20101884204D00021C4F20101884242
:1015B00006D1816801F00701062904BF00207047A9
:1015C000016841F00101016000207047B0B5044698
:1015D00090F83C0001284FF0020008BFB0BD012583
:1015E00084F83C5084F83D00206800F09DF9002804
:1015F0004FF0010006D0002184F83D5084F83C10E3
:10160000B0BD00BF2068C16821F04001C160C16861
:1016100021F48041C1600020002184F83D5084F80D
:101620003C10B0BDFEE7000010B540F21440C4F21B
:101630000200016840F6180421F0400101600168D1
:10164000C4F2020421F020014FF47F023023016034
:101650002260C0F8003401684FF0800C41F0800136
:10166000016001684FF0000E21F080010160016807
:1016700021F040010160016821F020010160226039
:10168000C0F80034016841F080010160016821F078
:1016900080010160016821F040010160016821F0D2
:1016A000200101602260C0F80034016841F080012F
:1016B0000160016821F080010160016821F04001B2
:1016C0000160016821F02001016020212260C0F842
:1016D0000014036843F080030360036823F0800371
:1016E0000360036823F040030360036823F02003D2
:1016F00003602260C0F800140168102341F08001EB
:101700000160016821F080010160016821F0400161
:101710000160016821F0200101602260C0F800C46E
:10172000016841F080010160016821F080010160E1
:10173000016821F040010160016821F02001016091
:101740002260C0F800E4016841F080010160016896
:1017500021F080010160016821F040010160016811
:1017600021F0200101602260C0F800C4016841F04E
:1017700080010160016821F080010160016821F0B1
:1017800040010160016821F0200101602260C0F881
:1017900000E4016841F080010160016821F08001EE
:1017A0000160016821F040010160016821F0200121
:1017B0000160C0212260C0F80014016841F080017E
:1017C0000160016821F080010160016821F04001A1
:1017D0000160016821F0200101602260C0F800E48E
:1017E000016841F080010160016821F08001016021
:1017F000016821F040010160016821F020010160D1
:1018000060212260C0F80014016841F0800101608D
:10181000016821F080010160016821F04001016050
:10182000016821F0200101602260C0F800340168E5
:1018300041F080010160016821F0800101600168D0
:1018400021F040010160016821F020010160226067
:10185000C0F800C4016841F080010160016821F016
:1018600080010160016821F040010160016821F000
:10187000200101602260C0F800E4016841F08001AD
:101880000160016821F080010160016821F04001E0
:101890000160016821F0200101602260C0F800347D
:1018A000016841F080010160016821F08001016060
:1018B000016821F040010160016821F02001016010
:1018C0002260C0F800E4016841F080010160016815
:1018D00021F080010160016821F040010160016890
:1018E00021F020010160F0212260C0F8001401689D
:1018F00041F080010160016821F08001016010BDAC
:10190000FEE70000FEE7000070470000704700009F
:10191000FEF77ABE4EF68850CEF20000016841F420
:10192000700101607047000080B58268D1E900E372
:1019300022F0770C23F0070242EA0C0242EA0E0C76
:101940004FEA3312072AC0F808C009D84FF0000C3C
:10195000DFE802F0040404040A1E344A604680BD35
:101960004FF0010C604680BDBEF1050F04BF0120A1
:1019700080BD026A036A23F0010303628369096977
:1019800023F0F00343EA011181610262002080BD6F
:10199000D1F808C00969036A026A22F001020262F2
:1019A000826922F0F00242EA011123F00A0242EABF
:1019B0000C0281610262002080BD00BFD1F808C026
:1019C0000969036A23F0100303628369026A23F43E
:1019D000704322F0A00243EA013142EA0C12816115
:1019E0000262002080BD00BFD1E902C3096982689C
:1019F00043EA0C0322F47F4243EA01211143816050
:101A0000002080BDFEE7000094B043F6300647F2A8
:101A10000005C4F20206C4F20005FEF703FE06ACA0
:101A2000201D2C21FEF79EFC00270497CDE90277AC
:101A3000CDE9007712973069022140F08050306183
:101A4000306900F08050129012981297286861F364
:101A50008F302860286800F44040129012980120CE
:101A6000099010200A90204606910C97FEF758FF27
:101A700020B1EFF3108072B6FEE700BF0F20CDE972
:101A8000000768460021CDE902770497FEF762FE61
:101A900020B1EFF3108072B6FEE700BF00270A976F
:101AA0000097306805F5CC3440F0010030603068B4
:101AB000F02100F0010000900098009730680022AB
:101AC00040F004003060306800F00400009000989E
:101AD0000097306840F0020030603068F02600F077
:101AE0000200009000982046FEF782FD05F5CA35F9
:101AF0002846E02100224FF0E008FEF779FD069627
:101B000006AE4FF0010920463146CDE90797099707
:101B1000FEF790FC28463146CDE90689CDE90877E5
:101B2000FEF788FC40F2B80040F20041C2F200002B
:101B3000C4F200014FF47A730397CDE90177CDE940
:101B40001277CDE90B77CDE90977102280E886007E
:101B5000C0E903378761FFF7FDF828B1EFF3108084
:101B600072B600BFFEE700BF4FF48050009040F215
:101B7000B800C2F200006946FFF716FA20B1EFF391
:101B8000108072B6FEE700BF40F2B800C2F200005B
:101B9000FFF702FC20B1EFF3108072B6FEE700BF42
:101BA00040F2B800C2F2000012A9FFF78BF828B18A
:101BB000EFF3108072B600BFFEE700BF6020069012
:101BC0006420079040F2B8000024C2F2000006A989
:101BD000002208940A94FFF7DFFA28B1EFF310808F
:101BE00072B600BFFEE700BF40F2B808C2F20008BC
:101BF0004046FFF7A7FA802001901020009040F2A5
:101C00007000C2F200004FF0804103220994C0E945
:101C10000014C0E9024204618461FFF79BF828B117
:101C2000EFF3108072B600BFFEE700BF07200690FA
:101C300050200790002008900F200A9040F270007A
:101C4000C2F2000006A9FFF7C1FC28B1EFF3108033
:101C500072B600BFFEE700BF40F27005C2F2000599
:101C600069462846FFF72EF820B1EFF3108072B6D0
:101C7000FEE700BF2846FFF755F940460021002641
:101C8000FFF72AFCFFF7D0FC0120642110A714A461
:101C900004E000BF57F8261054F82600D8F80020BA
:101CA000516300F025F8286804E000BF466A032E5F
:101CB000F0D900BF416A8E42F8D1416A8E42F5D117
:101CC000416A8E42F2D1416A8E42F3D0EEE700BF04
:101CD000640000002C010000F401000084030000F7
:101CE00001000000030000000500000009000000E2
:101CF000F0B540F21441C4F202010A684FF47F03C8
:101D000022F040020A600A684FF0000C22F0200224
:101D10000A6040F61802C4F202021360C1F800C45F
:101D20000E68402446F080060E600E684FF0500E9C
:101D300026F080060E600E68303026F040060E60F9
:101D40000E6826F020060E6010261360C1F80064AD
:101D50000E6846F080060E600E6826F080060E6063
:101D60000E6846F020060E600E6826F040060E60F3
:101D70001360C1F800440E6846F080060E600E68DD
:101D800026F080060E60C1F800440E6846F080061A
:101D90000E600E6826F080060E600E6846F0200683
:101DA0000E600E6826F040060E601360C1F800E475
:101DB0000D68902645F080050D600D6825F08005C2
:101DC0000D60C1F800E40D6845F080050D600D68F8
:101DD00025F080050D600D6845F020050D600D684B
:101DE00025F040050D601360C1F800E40D6845F072
:101DF00080050D600D6825F080050D60C1F8004478
:101E00000D6845F080050D600D6825F080050D60BA
:101E10000D6845F020050D600D6825F040050D604A
:101E20001360C1F800E40D6845F080050D600D6891
:101E300025F080050D60C1F800640D6845F080054F
:101E40000D600D6825F080050D600D6845F02005DA
:101E50000D600D6825F040050D601360C1F8004469
:101E60000D6845F080050D600D6825F080050D605A
:101E70003025C1F800540F6847F080070F600F68E5
:101E800027F080070F600F6847F020070F600F688A
:101E900027F040070F601360C1F800E40F6847F0B7
:101EA00080070F600F6827F080070F60C1F800649B
:101EB0000E6846F080060E600E6826F080060E6002
:101EC0000E6846F020060E600E6826F040060E6092
:101ED0001360C1F800440E6846F080060E600E687C
:101EE00026F080060E60C1F800540E6846F08006A9
:101EF0000E600E6826F080060E600E6846F0200622
:101F00000E600E6826F040060E601360C1F80044B3
:101F10000E6846F080060E600E6826F080060E60A1
:101F2000C026C1F800640E6846F080060E600E6898
:101F300026F080060E600E6846F020060E600E68E1
:101F400026F040060E601360C1F800440C6844F0AF
:101F500080040C600C6824F080040C60C1F800E47C
:101F60000C6844F080040C600C6824F080040C6061
:101F70000C6844F020040C600C6824F040040C60F1
:101F80001360C1F800540C6844F080040C600C68C5
:101F900024F080040C60A024C1F800440C6844F0D4
:101FA00080040C600C6824F080040C600C6844F021
:101FB00020040C600C6824F040040C6020241360A2
:101FC000C1F800440E6846F080060E600E6826F0E8
:101FD00080060E60C1F800C40E6846F080060E60F0
:101FE0000E6826F080060E600E6846F020060E6031
:101FF0000E6826F040060E6000F0F0061360C1F88F
:1020000000640E68000146F080060E600E68C0B2E3
:1020100026F080060E60C1F80004086840F08000D9
:102020000860086820F080000860086840F0200020
:102030000860086820F0400008601360C1F8005490
:10204000086840F080000860086820F080000860A0
:10205000C1F800C4086840F080000860086820F0FB
:1020600080000860086840F020000860086820F0E0
:10207000400008601360C1F80044086840F0800028
:102080000860086820F080000860C1F800E4086873
:1020900040F080000860086820F080000860F0BD13
:1020A000F1EE100A4FF6FF71C0F2C03120EA0100D4
:1020B00040F04070E1EE100A7047000000000000A0
:1020C000000001020304060708090000F0200008D0
:1020D0000000002010000000D001000800210008CE
:1020E00010000020F8060000EC01000800000000CD
:1020F00001000000100000000024F40000000000B7
:040000050800019559
:00000001FF
