:020000040800F2
:1000000060060020190200082102000823020008EF
:10001000250200082702000829020008000000004D
:100020000000000000000000000000002B0200089B
:100030002D020008000000002F0200083102000815
:1000400033020008330200083302000833020008BC
:1000500033020008330200083302000833020008AC
:10006000330200083302000833020008330200089C
:10007000330200083302000833020008330200088C
:1000800033020008330200083302000800000000B9
:100090000000000000000000000000003302000823
:1000A000330200083302000833020008330200085C
:1000B000330200083302000833020008330200084C
:1000C000330200083302000833020008330200083C
:1000D0003302000833020008330200080000000069
:1000E0003302000833020008330200080000000059
:1000F00000000000000000000000000033020008C3
:100100000000000033020008330200083302000838
:1001100000000000000000000000000000000000DF
:1001200033020008330200083302000833020008DB
:100130003302000800000000000000000000000082
:100140000000000000000000000000003302000872
:1001500033020008330200083302000833020008AB
:100160003302000833020008000000000000000015
:10017000000000000000000000000000000000007F
:100180000000000033020008000000000000000032
:100190003302000800F002F800F02EF80AA090E800
:1001A000000C82448344AAF10107DA4501D100F032
:1001B00023F8AFF2090EBAE80F0013F0010F18BFD1
:1001C000FB1A43F001031847B0020000C002000010
:1001D0000023002400250026103A28BF78C1FBD850
:1001E000520728BF30C148BF0B6070471FB500F0F1
:1001F00036F91FBD10B510BD00F031F81146FFF7FC
:10020000F5FF00F071F800F04FF803B4FFF7F2FFCC
:1002100003BC00F057F80000094880470948004730
:10022000FEE7FEE7FEE7FEE7FEE7FEE7FEE7FEE7A6
:10023000FEE7FEE704480549054A064B7047000003
:10024000D50200089501000860000020600600202B
:1002500060020020600200207047704770477546BA
:1002600000F02CF8AE4605006946534620F0070022
:10027000854618B020B5FFF7DDFFBDE820404FF000
:1002800000064FF000074FF000084FF0000BAC469F
:10029000ACE8C009ACE8C009ACE8C009ACE8C009EA
:1002A00021F007018D46704710B50446AFF300807A
:1002B0002046BDE81040FFF7A8BF00000048704787
:1002C0000000002001491820ABBEFEE72600020016
:1002D000704700004EF68851CEF20001086840F4E5
:1002E000700008607047000083B00020029043F661
:1002F0003002C4F20202116841F00101116011687C
:1003000041F0020111600022C4F202021168106083
:1003100040F20C43C4F20203AA211960116845F2AD
:1003200055531943116040F20041C4F202010A68BA
:10033000086001901821C4F202010020CFF6FF707E
:100340000860FF200190FFE7FFE7019840F21041AD
:10035000C4F202010968884201D1FFE7F5E740F2E3
:100360001040C4F2020000680190019800F00F00F4
:10037000014600910F2800F26B800099DFE801F040
:10038000080E141A20262C32383E444A50565C621D
:100390001421C4F202013F2008605FE01421C4F27E
:1003A00002010620086059E01421C4F202015B201A
:1003B000086053E01421C4F202014F2008604DE0B0
:1003C0001421C4F202016620086047E01421C4F23F
:1003D00002016D20086041E01421C4F202017D2079
:1003E00008603BE01421C4F202010720086035E0F8
:1003F0001421C4F202017F2008602FE01421C4F20E
:1004000002016F20086029E01421C4F20201772064
:10041000086023E01421C4F202017C2008601DE082
:100420001421C4F202013920086017E01421C4F23B
:1004300002015E20086011E01421C4F2020179205B
:1004400008600BE01421C4F202017120086005E08D
:100450001821C4F202013F200860FFE774E7F1EEC3
:10046000100A4FF6FF71C0F2C03120EA010040F0DF
:100470004070E1EE100A7047880400080000002078
:0804800060060000D001000835
:040000050800019559
:00000001FF
