:020000040800F2
:1000000060060020190200082102000823020008EF
:10001000250200082702000829020008000000004D
:100020000000000000000000000000002B0200089B
:100030002D020008000000002F0200083102000815
:1000400033020008330200083302000833020008BC
:1000500033020008330200083302000833020008AC
:10006000330200083302000833020008330200089C
:10007000330200083302000833020008330200088C
:1000800033020008330200083302000800000000B9
:100090000000000000000000000000003302000823
:1000A000330200083302000833020008330200085C
:1000B000330200083302000833020008330200084C
:1000C000330200083302000833020008330200083C
:1000D0003302000833020008330200080000000069
:1000E0003302000833020008330200080000000059
:1000F00000000000000000000000000033020008C3
:100100000000000033020008330200083302000838
:1001100000000000000000000000000000000000DF
:1001200033020008330200083302000833020008DB
:100130003302000800000000000000000000000082
:100140000000000000000000000000003302000872
:1001500033020008330200083302000833020008AB
:100160003302000833020008000000000000000015
:10017000000000000000000000000000000000007F
:100180000000000033020008000000000000000032
:100190003302000800F002F800F02EF80AA090E800
:1001A000000C82448344AAF10107DA4501D100F032
:1001B00023F8AFF2090EBAE80F0013F0010F18BFD1
:1001C000FB1A43F0010318476404000074040000A4
:1001D0000023002400250026103A28BF78C1FBD850
:1001E000520728BF30C148BF0B6070471FB500F0F1
:1001F0000FFA1FBD10B510BD00F031F81146FFF722
:10020000F5FF00F097F900F04FF803B4FFF7F2FFA5
:1002100003BC00F057F80000094880470948004730
:10022000FEE7FEE7FEE7FEE7FEE7FEE7FEE7FEE7A6
:10023000FEE7FEE704480549054A064B7047000003
:10024000E904000895010008600000206006002015
:1002500060020020600200207047704770477546BA
:1002600000F02CF8AE4605006946534620F0070022
:10027000854618B020B5FFF7DDFFBDE820404FF000
:1002800000064FF000074FF000084FF0000BAC469F
:10029000ACE8C009ACE8C009ACE8C009ACE8C009EA
:1002A00021F007018D46704710B50446AFF300807A
:1002B0002046BDE81040FFF7A8BF00000048704787
:1002C0000000002001491820ABBEFEE72600020016
:1002D0007047000080B5002000F004F8102000F006
:1002E00001F880BD80B584B08DF80F0040F2144154
:1002F000C4F202010291086820F04000086008681A
:1003000020F02000086040F61801C4F202014FF40A
:100310007F0008609DF80F0040F61401C4F202014E
:1003200008600020019000F0E9F80198029A116835
:1003300041F08001116000F0E1F80299086820F0B6
:10034000800008609DF80F00032804DCFFE702200E
:1003500000F0D4F803E0012000F0D0F8FFE704B08B
:1003600080BD000080B586B08DF817009DF817009D
:1003700000F00F008DF816009DF8170000F0F00057
:100380008DF8150040F21441C4F20201039108688F
:1003900040F020000860086820F04000086040F647
:1003A0001802C4F202024FF47F0010609DF815009D
:1003B00040F61402C4F2020201921060086840F094
:1003C000800008600020029000F098F80399086807
:1003D00020F0800008600120049000F08FF8019B5D
:1003E0000298039A9DF8161009011960116841F0EE
:1003F0008001116000F082F8039A0498116821F0DE
:100400008001116000F07AF806B080BD80B586B03A
:1004100000F046F8142000F071F830200190FFF74A
:1004200061FF052000F06AF80198FFF75BFF0120EB
:1004300000F064F80198FFF755FF20200290FFF7C5
:1004400051FF0298FFF74EFF80200390FFF74AFF0D
:1004500000200590FFF746FF0398FFF743FF05983C
:10046000FFF740FFC020FFF73DFF0598FFF73AFF79
:100470006020FFF737FF10200490FFF733FF039849
:10048000FFF730FF0598FFF72DFF0498FFF72AFFCD
:100490000598FFF727FFF020FFF724FF06B080BD87
:1004A00043F63001C4F20201086840F0020008601F
:1004B00040F20C42C4F20202106840F002001060E8
:1004C00040F20042C4F20202106840F4AA401060F8
:1004D000086840F00400086040F60001C4F2020120
:1004E0004FF05530086070474EF68851CEF200014B
:1004F000086840F4700008607047000083B0029004
:10050000FFE70298012813DBFFE700200090FFE7D8
:10051000009840F67A41884205DCFFE7FFE7009843
:1005200001300090F4E7FFE7029801380290E8E715
:1005300003B0704780B586B0002001900590FFF7AA
:1005400065FFFFF7C7FE019840F21041C4F20201B7
:1005500009680491039003983030C0B2FFF702FF9E
:10056000FFE7FFE740F21040C4F202000068049980
:10057000884201D1FFE7F5E7FFF7ACFE03980928B1
:1005800012D8FFE703983030C0B2FFF7EBFE962099
:10059000FFF7B4FF40F21040C4F20200006804907C
:1005A00003980130039032E003980290FFE702982D
:1005B0000A280FD3FFE702984CF6CD41CCF6CC4188
:1005C000A0FB0110C008029002983030C0B2FFF7C3
:1005D000C9FEECE703984CF6CD41CCF6CC41A0FB2C
:1005E0000121C90801EB8101A0EB410040F030007E
:1005F000FFF7B8FE9620FFF781FF40F21040C4F2EB
:10060000020000680490039801300390FFE7A8E718
:10061000F1EE100A4FF6FF71C0F2C03120EA01007E
:1006200040F04070E1EE100A704700003C06000800
:0C0630000000002060060000D00100085F
:040000050800019559
:00000001FF
