:020000040800F2
:1000000060060020190200082102000823020008EF
:10001000250200082702000829020008000000004D
:100020000000000000000000000000002B0200089B
:100030002D020008000000002F0200083102000815
:1000400033020008330200083302000833020008BC
:1000500033020008330200083302000833020008AC
:10006000330200083302000833020008330200089C
:10007000330200083302000833020008330200088C
:1000800033020008330200083302000800000000B9
:100090000000000000000000000000003302000823
:1000A000330200083302000833020008330200085C
:1000B000330200083302000833020008330200084C
:1000C000330200083302000833020008330200083C
:1000D0003302000833020008330200080000000069
:1000E0003302000833020008330200080000000059
:1000F00000000000000000000000000033020008C3
:100100000000000033020008330200083302000838
:1001100000000000000000000000000000000000DF
:1001200033020008330200083302000833020008DB
:100130003302000800000000000000000000000082
:100140000000000000000000000000003302000872
:1001500033020008330200083302000833020008AB
:100160003302000833020008000000000000000015
:10017000000000000000000000000000000000007F
:100180000000000033020008000000000000000032
:100190003302000800F002F800F02EF80AA090E800
:1001A000000C82448344AAF10107DA4501D100F032
:1001B00023F8AFF2090EBAE80F0013F0010F18BFD1
:1001C000FB1A43F001031847040600001406000060
:1001D0000023002400250026103A28BF78C1FBD850
:1001E000520728BF30C148BF0B6070471FB500F0F1
:1001F000DFFA1FBD10B510BD00F031F81146FFF752
:10020000F5FF00F021FA00F04FF803B4FFF7F2FF1A
:1002100003BC00F057F80000094880470948004730
:10022000FEE7FEE7FEE7FEE7FEE7FEE7FEE7FEE7A6
:10023000FEE7FEE704480549054A064B7047000003
:10024000D50200089501000860000020600600202B
:1002500060020020600200207047704770477546BA
:1002600000F02CF8AE4605006946534620F0070022
:10027000854618B020B5FFF7DDFFBDE820404FF000
:1002800000064FF000074FF000084FF0000BAC469F
:10029000ACE8C009ACE8C009ACE8C009ACE8C009EA
:1002A00021F007018D46704710B50446AFF300807A
:1002B0002046BDE81040FFF7A8BF00000048704787
:1002C0000000002001491820ABBEFEE72600020016
:1002D000704700004EF68851CEF20001086840F4E5
:1002E000700008607047000084B00390029103988A
:1002F00000F00F00014601910F2800F28B80019958
:10030000DFE801F0081018202830384048505860C5
:100310006870788002994FF4FE00086002993F20CF
:1003200008607FE002994FF4FE0008600299062001
:10033000086077E002994FF4FE00086002995B20A4
:1003400008606FE002994FF4FE00086002994F20A8
:10035000086067E002994FF4FE0008600299662089
:1003600008605FE002994FF4FE00086002996D207A
:10037000086057E002994FF4FE00086002997D2062
:1003800008604FE002994FF4FE00086002990720D0
:10039000086047E002994FF4FE00086002997F2050
:1003A00008603FE002994FF4FE00086002996F2058
:1003B000086037E002994FF4FE0008600299772048
:1003C00008602FE002994FF4FE00086002997C203B
:1003D000086027E002994FF4FE0008600299392076
:1003E00008601FE002994FF4FE00086002995E2049
:1003F000086017E002994FF4FE0008600299792026
:1004000008600FE002994FF4FE0008600299712025
:10041000086007E002994FF4FE00086002993F204F
:100420000860FFE7039800F0F00001460091002803
:1004300041D0FFE70098102847D0FFE70098202818
:100440004DD0FFE70098302853D0FFE700984028B0
:1004500059D0FFE7009850285FD0FFE70098602848
:1004600065D0FFE7009870286BD0FFE700988028E0
:1004700071D0FFE70098902877D0FFE70098A02878
:100480007DD0FFE70098B02800F08380FFE7009858
:10049000C02800F08880FFE70098D02800F08D8009
:1004A000FFE70098E02800F09280FFE70098F0282E
:1004B00000F097809FE002990020CFF680700860DE
:1004C00002994FF4FC500860A0E002990020CFF69A
:1004D0008070086002994FF44070086096E00299BD
:1004E0000020CFF68070086002994FF43650086003
:1004F0008CE002990020CFF68070086002994FF4DA
:100500001E50086082E002990020CFF680700860DB
:1005100002994FF44C50086078E002990020CFF621
:100520008070086002994FF45A5008606EE002999A
:100530000020CFF68070086002994FF47A5008606E
:1005400064E002990020CFF68070086002994FF4B1
:10055000607008605AE002990020CFF68070086051
:1005600002994FF47E50086050E002990020CFF6C7
:100570008070086002994FF45E50086046E002996E
:100580000020CFF68070086002994FF46E5008602A
:100590003CE002990020CFF68070086002994FF489
:1005A0007850086032E002990020CFF68070086031
:1005B00002994FF4E450086028E002990020CFF639
:1005C0008070086002994FF43C5008601EE0029968
:1005D0000020CFF68070086002994FF472500860D6
:1005E00014E002990020CFF68070086002994FF461
:1005F000625008600AE01821C4F202010020CFF620
:10060000807008604FF4FC500860FFE704B070474A
:1006100082B00190FFE70198012813DBFFE700207B
:100620000090FFE7009840F67A41884205DCFFE73A
:10063000FFE7009801300090F4E7FFE701980138E8
:100640000190E8E702B0704780B582B000200190C9
:1006500043F63002C4F20202116841F00101116058
:10066000116841F002011160116841F0040111604C
:100670000022C4F202021168106040F20C43C4F27E
:1006800002034AF6AA211960116841F05531116040
:1006900040F20041C4F202010A68086040F600021C
:1006A000C4F2020211681060116841F05501116036
:1006B00000901821C4F202010020CFF6FF700860FC
:1006C0000098FFF711FEFFE740F21040C4F202006D
:1006D0000068C00728B3FFE740F61801C4F2020122
:1006E0000220CFF6FD70086000980130009000985D
:1006F000B0F5807F03D3FFE700200090FFE700986C
:100700001821C4F20201FFF7EFFD9620FFF780FFEA
:1007100040F61801C4F202010020CFF6FF70086015
:10072000FFE740F21040C4F2020000688007002892
:1007300028D5FFE740F61801C4F202010120CFF6E8
:10074000FE700860009820B1FFE700980138009023
:10075000FFE70098002803D2FFE700200090FFE7A2
:1007600000981821C4F20201FFF7BEFD9620FFF7A2
:100770004FFF40F61801C4F202010020CFF6FF70CF
:100780000860FFE740F21040C4F202000068400732
:1007900000280CD5FFE70020009000981821C4F233
:1007A0000201FFF7A1FD9620FFF732FFFFE78BE77D
:1007B000F1EE100A4FF6FF71C0F2C03120EA0100DD
:1007C00040F04070E1EE100A70470000DC070008BE
:0C07D0000000002060060000D0010008BE
:040000050800019559
:00000001FF
