:020000040800F2
:100000001007002035020008151500080D1500081E
:10001000111500082D040008391500080000000023
:100020000000000000000000000000001D15000896
:10003000310400080000000019150008211500080F
:100040004F0200084F0200084F0200084F0200084C
:100050004F0200084F0200084F0200084F0200083C
:100060004F0200084F0200084F0200084F0200082C
:100070004F0200084F0200084F0200084F0200081C
:100080004F0200084F0200084F0200080000000065
:100090000000000000000000000000004F02000807
:1000A0004F0200084F0200084F0200084F020008EC
:1000B0004F0200084F0200084F0200084F020008DC
:1000C0004F0200084F0200084F0200084F020008CC
:1000D0004F0200084F0200084F0200080000000015
:1000E0004F0200084F0200084F0200080000000005
:1000F0000000000000000000000000004F020008A7
:10010000000000004F0200084F0200084F020008E4
:1001100000000000000000000000000000000000DF
:100120004F0200084F0200084F0200084F0200086B
:100130004F02000800000000000000000000000066
:100140000000000000000000000000004F02000856
:100150004F0200084F0200084F0200084F0200083B
:100160004F0200084F0200080000000000000000DD
:10017000000000000000000000000000000000007F
:10018000000000004F020008000000000000000016
:100190004F02000800F002F800F03CF80AA090E8D6
:1001A000000C82448344AAF10107DA4501D100F032
:1001B00031F8AFF2090EBAE80F0013F0010F18BFC3
:1001C000FB1A43F001031847741500009415000052
:1001D000103A24BF78C878C1FAD8520724BF30C873
:1001E00030C144BF04680C60704700000023002445
:1001F00000250026103A28BF78C1FBD8520728BF37
:1002000030C148BF0B6070471FB501F082FA1FBDB7
:1002100010B510BD00F0D0F81146FFF7F5FF01F062
:100220008DF900F0EEF803B4FFF7F2FF03BC00F025
:10023000F5F800000948804709480047FEE7FEE757
:10024000FEE7FEE7FEE7FEE7FEE7FEE7FEE7FEE786
:1002500004480549054A064B70470000251500086B
:100260009501000810010020100700201003002055
:100270001003002053EA020C00F069802DE9F04BD6
:100280004FF00006002B1FBFB3FA83F503FA05F405
:1002900024FA05F65E4012BF1643B2FA82F502FA5E
:1002A00005F4C5F120051EBF22FA05FC44EA0C0442
:1002B000203556EA044C4FEA144418BF641C4FF032
:1002C00000084FF00009904271EB030C39D300296C
:1002D00019BFB1FA81F701FA07F6B0FA80F700FA10
:1002E00007F6C7F120071EBF20FA07FC46EA0C06F6
:1002F0002037B6FBF4FCA7EB0507103F07F01F0BF8
:10030000CBF120062CFA06F60CFA0BFB44BFB346E1
:100310000026202FA4BF5E464FF0000B5BEA060CC0
:1003200008BF4FF0010B19EB0B0948EB0608ABFBBC
:10033000027C06FB02CC0BFB03CCC01B71EB0C0157
:10034000C1E70B46024641464846BDE8F08B13B56F
:10035000084318BF4FF0FF300146AFF30080BDE8FF
:100360001C4070474FF0000200B513469446964675
:10037000203922BFA0E80C50A0E80C50B1F12001B8
:10038000BFF4F7AF090728BFA0E80C5048BF0CC066
:100390005DF804EB890028BF40F8042B08BF7047C4
:1003A00048BF20F8022B11F0804F18BF00F8012B36
:1003B0007047704770477047754600F02BF8AE469F
:1003C00005006946534620F00700854618B020B561
:1003D000FFF73EFFBDE820404FF000064FF000075A
:1003E0004FF000084FF0000BAC46ACE8C009ACE899
:1003F000C009ACE8C009ACE8C00921F007018D468E
:10040000704710B50446AFF300802046BDE81040A9
:10041000FFF709BF0048704710000020014918206D
:10042000ABBEFEE72600020070470000FEE70000BA
:100430007047000070B581B00022009290F83C2017
:10044000012A03D10221084601B070BDD1F800E0B5
:100450000122BEF10A0F80F83C200BD31FFA8EF266
:100460005200066812FA8EF2A2F11E0306F10C0287
:1004700005E000BF06680EEB4E0306F110024FF0D8
:10048000070C15680CFA03F4A54315608D68146811
:1004900005FA03F3234313604968062906D801EBE4
:1004A0008101053906F134020AE000BF0C2901EB95
:1004B000810187BF413906F12C02233906F1300250
:1004C0001F2314688B4024EA030342F2043C1360A8
:1004D000C4F2010C1FFA8EF3146803FA01F1ACF5B3
:1004E000417321439E4211603ED1BEF1120F07D1EC
:1004F000DCF8001041F48001CCF8001034E000BFBB
:100500002EF0010110292FD1DCF80010BEF1100FE0
:1005100041F40001CCF8001026D140F20801C2F2EB
:10052000000109684DF68362C4F21B32A1FB02127E
:10053000910C01EB8101490000910099A1B1009952
:1005400001390091009979B1009901390091009920
:1005500051B1009901390091009929B100990139EF
:10056000009100990029EAD1002180F83C1008464A
:1005700001B070BD002804BF0120704710B50446CB
:10058000006C00283ED0206CC00645D4206C41F29F
:1005900002118843023042F204312064C4F20101A6
:1005A000086820F4403008600A6894E809101A438B
:1005B000D4F810E00A604168012321F480714160A1
:1005C0004168C0F6007341EA0E214160416821F0A4
:1005D00040714160416841EA0C014160816821F449
:1005E00000618160E168826811438160A16A82686C
:1005F000994222F070628260826813D122F04051E9
:1006000019E000BF204600F065F80020606484F81F
:100610003C00206CC006B9D50120002184F83C10B4
:1006200010BD00BF11438160816821F0405181609D
:10063000E16A826811438160816821F00201816072
:100640008168227E94F8203041EA4201816041684D
:1006500083B141F40061416041684EF2000221F42F
:1006600060414160616ACFF6FF72436802EB41313D
:10067000194301E021F400614160C16A40F2000CBD
:1006800021F47001C162E2696169CFF6F07CC36A4E
:100690000CEB02521A43C262826822F4007282603A
:1006A00094F83020836843EA42228260826822F410
:1006B00080628260826842EA8121816000206064F9
:1006C000216C012262F301012164002184F83C10B5
:1006D00010BD000080B586B042F200010068C4F28F
:1006E0000101002288420592049201D006B080BD2B
:1006F00043F630000092C4F20200436943F4807371
:100700004361436903F480730093009B0092036884
:1007100043F001030360006800F0010000900098BE
:10072000802001900320CDE9020201F5604001A97B
:1007300000F094F806B080BD80B581B00021009132
:1007400090F83C10012903D1022001B080BD00BF08
:10075000D0F800E0012180F83C10714651F8083FC4
:10076000DB072AD10B684DF6836243F001030B606F
:1007700040F20803C2F200031B68C4F21B32A3FB61
:1007800002239A0C02EB42020092009AAAB100BF27
:10079000009A013A0092009A7AB1009A013A0092C6
:1007A000009A52B1009A013A0092009A2AB1009A36
:1007B000013A0092009A002AEAD10A68036CD20733
:1007C0000AD143F01001016400F1440101200A68DC
:1007D000104308603EE000BF40F2017223EA0202CB
:1007E00002F580720264DEF80420520504D5026C22
:1007F000012363F30D320264026C4FF0000C0023FE
:10080000D20444BF426C22F00603436480F83CC02B
:100810006FF02200CEF80000DEF8042042F2000063
:1008200042F0806242F02002C4F20100CEF80420BF
:10083000D0F80423D20609D086450BD1806810F089
:10084000405F07D14FF08040C1E700BF086810F05B
:10085000405FF7D0002001B080BD00002DE9F04FCF
:1008600082B000F13E4241F2000502F1FF77C4F28E
:10087000020507224FEAB726A84208BF0422042E29
:1008800038BF4FEAB7224FF0010A002400274FF08B
:100890000008009208E000BF023708F10108202F8D
:1008A00004F1040400F0B4800E680AFA08F916EAAC
:1008B000090FF1D0D1F804A00AF0030BABF1010647
:1008C000012E17D80322866802FA07FECA6826EAB4
:1008D0000E06BA40324382604268CAF3001522EA2B
:1008E000090205FA08F54FEA480C6FEA0E062A439A
:1008F00042600BE00322BA40D643BBF1030FBC4673
:1009000004D1BC464FF0030B22E000BFC2688D68E3
:10091000324005FA0CF52A43BBF1020FC26017D131
:100920006FF0030202EA5802024404F01C030F2590
:10093000D2F820E005FA03FA0D692EEA0A0E05FA4C
:1009400003F343EA0E031362D1F804A00AF0030B89
:1009500002680BFA0CF332401A431AF4403F4FF08E
:10096000010A026098D0002243F644030192C4F2C7
:1009700002031A6843F6004E42F480421A601A6875
:10098000C4F2010E02F480420192019A28F003029F
:100990004FF6084C7244CFF6FF7C52F80C3004F04E
:1009A0000C060F25B540AB43009D05FA06F6334310
:1009B00042F80C30DEF808204B6842EA090643F69C
:1009C0000C4CDD0258BF22EA0906CEF80860C4F2DA
:1009D000010CDCF800209D0242EA090658BF22EA19
:1009E0000906CCF80060DEF804209D0342EA0906FF
:1009F00058BF22EA0906CEF80460DEF80020DB03C7
:100A000042EA090658BF22EA0906CEF8006043E729
:100A100002B0BDE8F08F0000002A08BF0904816120
:100A20007047000040F20C10C2F2000000687047EE
:100A300040F2000040F20C11C2F20000C2F20001CC
:100A400000780A68104408607047000080B543F6DB
:100A50000040C4F20200016841F4007101600168C5
:100A600041F480610160016841F4807101600320FC
:100A700000F074F80F2000F005F800F027F80020CF
:100A800080BD000070B540F20006C2F2000640F2E0
:100A900008013278C2F200014FF47A730968B3FB9F
:100AA000F2F20446B1FBF2F1084600F009FB0F2C0C
:100AB0004FF0010508D838B94FF0FF302146002229
:100AC000002500F01FF87460284670BD82B0002039
:100AD00043F640010190C4F202014A6842F48042A8
:100AE0004A604A6802F480420192019A00900868C4
:100AF00040F080500860086800F080500090009836
:100B000002B0704710B54EF60C5CCEF2000CDCF86B
:100B10000030C3F3022E8EF00704042C28BF0424F7
:100B2000BEF103034FF0FF3E0EFA04F438BF00237A
:100B3000A14399400EFA03F39A43114300F00F02C8
:100B4000043A624409010C3200F16043B0F1FF3F06
:100B5000C8BF03F56442117010BD00004EF60C5181
:100B6000CEF200010A684FF6FF031A4060F30A2232
:100B700042F0806040F0FD70086070472DE9F04160
:100B8000002800F08B8043F60808C4F202080446EF
:100B9000D8F8F8030D4600F00700884207D288F81D
:100BA000F853D8F8F80300F00700A84276D120687F
:100BB000810717D5410705D5D8F8001041F4E05159
:100BC000C8F80010010705D5D8F8001041F46041BD
:100BD000C8F80010D8F80010A26821F0F001114305
:100BE000C8F80010C0073FD1D8F8F80300F007009C
:100BF000A84207D988F8F853D8F8F80300F007009E
:100C0000A8424BD12068410707D5D8F80010E26808
:100C100021F4E0511143C8F80010000708D5D8F8B6
:100C20000000216920F4604040EAC100C8F80000DB
:100C300000F054F8D8F8001041F22C72C1F30311FF
:100C4000C0F60002515C40F2080220FA01F140F2C5
:100C50000400C2F200000068C2F200021160FFF757
:100C600011FF0020BDE8F0816068811E022907D2D3
:100C700058F8081C89015CBF0120BDE8F08111E033
:100C8000012807D158F8081C89035CBF0120BDE882
:100C9000F08107E058F8081C890703D40120BDE85B
:100CA000F08100BFD8F8001021F003010843C8F814
:100CB0000000FFF7B7FE064641F28837D8F800007B
:100CC000616800F00C00B0EB810F8DD0FFF7AAFE39
:100CD000801BB842F2D90320BDE8F08110B543F67D
:100CE0000404C4F20204606800F00C0008280BD071
:100CF000042819BF42F20040C0F2F40047F6400059
:100D0000C0F27D1010BD00BF206821682368490231
:100D100047F64001C0F27D1100F03F02C3F3881096
:100D20005CBF42F20041C0F2F401A1FB00010023CC
:100D3000FFF7A0FA21680222C1F3014102EB410151
:100D4000B0FBF1F010BD00002DE9F04182B00028A9
:100D50006AD00446007843F60006C007C4F20206D3
:100D60000BD0B06800F00C00042840F0A18030687F
:100D7000800302D56068002856D0207880071AD5F5
:100D8000B06810F00C0F09D0B06800F00C00082813
:100D900040F0A8807068400200F1A48030688007AD
:100DA00002D5E06801283FD13068216920F0F800C1
:100DB00040EAC10030602078000739D4207840072D
:100DC0004ED4A5695DB3B06800F00C00082840F06F
:100DD000BD80012D28D07068E16900F480028A424C
:100DE00022D1216A00F03F028A421DD147F6C0712C
:100DF000626A0140B1EB821F16D1A26A0023CFF6CE
:100E0000FF7303EBC23200F440316FF30F029142E3
:100E10000AD1E16A00F07060B0EB016F04D10020EC
:100E200002B0BDE8F08100BF012002B0BDE8F08152
:100E30006069002840F20000C4F2472076D001210A
:100E4000C0F8801EFFF7EEFD054600BF706F8007FB
:100E5000B4D4FFF7E7FD401B0228F7D9DDE000BF5F
:100E6000306C10F080580AD100200190306C40F0B6
:100E700080503064306C00F080500190019847F24F
:100E80000007C4F200073868C00541D4386840F450
:100E900080703860FFF7C6FD054600BF3868C005A2
:100EA00036D4FFF7BFFD401B0228F7D9B5E000BFDD
:100EB000B06800F00C00082803D1706840023FF5CC
:100EC00056AF6068B0F5803F07D0B0F5A02F40F076
:100ED0008D80306840F480203060306840F480308D
:100EE00030608DE0E068002852D00020C4F2472036
:100EF00001210160FFF796FD054600BF30688007BD
:100F00003FF552AFFFF78EFD401B0228F6D984E073
:100F1000A068012805D005284ED1306F40F00400AC
:100F20003067306F40F0010030674FE00021C0F8BB
:100F3000801EFFF777FD0546706F80077FF53EAF97
:100F4000FFF770FD401B0228F6D966E00027C4F2C7
:100F5000472700203866FFF765FD022D05460BD1B7
:100F6000306880015ED5FFF75DFD401B02284FF021
:100F70000300F5D954E700BF306880017FF54FAF1B
:100F8000FFF750FD401B02284FF00300F4D947E75C
:100F90000020C4F2472000210160FFF743FD054611
:100FA000306880077FF507AFFFF73CFD401B022844
:100FB0004FF00300F4D933E7316F002821F001012D
:100FC0003167316F21F0040131674DD0FFF72AFD01
:100FD000054641F2883700BF306F800756D4FFF7CF
:100FE00021FD401BB842F7D917E000BF3168002847
:100FF00021F480313160316821F4802131604FD09B
:10100000FFF710FD054600BF306880033FF5B5AE21
:10101000FFF708FD401B6428F6D9032002B0BDE8A5
:10102000F08100BF04F11C052FCD08430021CFF64D
:10103000FF7140EA821001EBC3316FF30F0140EA08
:1010400005600843706001203866FFF7EBFC04463A
:10105000306880013FF5E3AEFFF7E4FC001B022897
:101060004FF00300F4D9DBE6FFF7DCFC054641F264
:10107000883700BF306F800708D5FFF7D3FC401BCF
:10108000B8424FF00300F5D9CAE600BFB8F1000F2F
:101090007FF497AE306C20F08050306491E600BF52
:1010A000FFF7C0FC054600BF306880037FF565AEE2
:1010B000FFF7B8FC401B64284FF00300F4D9AFE6FB
:1010C000411E0020B0EB116F1CBF012070474EF293
:1010D0001002CEF2000251604EF62351CEF2000112
:1010E000F0230B70072190601160704710B590F8E5
:1010F0003C20012A4FF002023ED080F83D200268D9
:10110000D2F804E0D2F808C00C682EF07003234334
:1011100040F6FF34C4F20004A242536010DCB2F186
:10112000804F1ED040F20043C4F200039A4218D010
:1011300040F60003C4F200039A4212D016E000BF4A
:1011400040F60043C4F200039A420AD044F200037E
:10115000C4F201039A4204D00023C4F201039A426C
:1011600004D149682CF080031943916001210022C9
:1011700080F83D1080F83C20104610BD002804BFC8
:101180000120704710B5044690F83D0028B90020B2
:1011900084F83C00204600F08FF8022084F83D00DF
:1011A000206840F2FF730268C4F2000340F2000CB2
:1011B0009842C4F2010C1DDD40F60001C4F20001AA
:1011C000884220D060451ED040F60041C4F20001A4
:1011D000884218D04FF6FF71C4F2000188421CDC2F
:1011E000984225DCB0F1804F3AD040F20041C4F281
:1011F000000133E0B0F1804F05D040F20041C4F26D
:1012000000018842E6D1A16822F070020A434FF63D
:10121000FF71C4F200018842E2DD44F2FF31C4F202
:101220000101884210DC60451AD044F2000113E04D
:1012300040F60001C4F20001884211D040F600419E
:10124000C4F200010AE000BF44F60001C4F201014B
:10125000884205D044F20041C4F20101884203D122
:10126000216922F440720A43A36922F08001D4F874
:1012700004E0E268194360450160C262C0F828E0FA
:1012800002D16169CCF8301001214161002084F85D
:10129000461084F83E1084F83F1084F8401084F81B
:1012A000411084F8421084F8431084F8441084F804
:1012B000451084F83D1010BD81B00068B0F1804F3A
:1012C00002D001B0704700BF0020009043F64000FC
:1012D000C4F20200016841F001010160006800F001
:1012E00001000090009801B07047000090F83D1098
:1012F00001291CBF01207047022180F83D100068C1
:1013000040F6FF32C168C4F20002904241F0010190
:10131000C1600FDCB0F1804F1DD040F20041C4F23B
:101320000001884217D040F60001C4F20001884253
:1013300011D017E040F60041C4F2000188420AD003
:1013400044F20001C4F20101884204D00021C4F239
:101350000101884206D1816801F00701062904BF16
:1013600000207047016841F00101016000207047D2
:1013700080B590F83C20012A4FF0020200F0C280B4
:1013800080F83D20D0F800C04FF67772DCF80830C6
:1013900023EA0202CCF808200B684F2B28DC1F2B15
:1013A00044DD202B45D0302B43D0402B40F0AC8087
:1013B000D1F804E0C968DCF82030DCF8202022F005
:1013C0000102CCF82020DCF8182022F0F00242EADA
:1013D000011123F00A0242EA0E02CCF81810CCF8F0
:1013E0002020DCF8081041F0470121F0300180E0B6
:1013F0006F2B27DDB3F5005F48D0B3F5805F7AD05F
:10140000702B40F08180D1E901E3C968DCF8082045
:1014100043EA0E0322F47F4243EA01211143CCF850
:101420000810DCF8081041F0770162E00BB1102BD6
:101430006AD1DCF8081021F07001194341F007016E
:1014400057E000BF502B35D0602B5DD1D1F804E0C0
:10145000C968DCF8203023F01003CCF82030DCF829
:101460001830DCF8202023F4704322F0A00243EA75
:10147000013142EA0E12CCF81810CCF82020DCF82A
:10148000081041F0670121F0100132E0D1E901E3D9
:10149000C968DCF8082043EA0E0322F47F4243EADD
:1014A00001211143CCF80810DCF8081041F4804108
:1014B0001FE000BFD1F804E0C968DCF82030DCF898
:1014C000202022F00102CCF82020DCF8182022F0A5
:1014D000F00242EA011123F00A0242EA0E02CCF8BD
:1014E0001810CCF82020DCF8081041F0570121F04A
:1014F0002001CCF808100022012180F83D100021C5
:1015000080F83C10104680BD0122F5E7FEE70000A0
:10151000FEE70000FEE70000704700007047000093
:10152000FFF786BA4EF68850CEF20000016841F40B
:101530007001016070470000FEE7000094B043F6C0
:10154000300647F20005C4F20206C4F20005FFF7B8
:101550007DFA08AC201D2C21FEF704FF002706971A
:10156000CDE90477CDE9027701973069022140F097
:1015700080503061306900F08050019001980197EF
:10158000286861F38F302860286800F4404001909B
:10159000019801200B9010200C90204608910E9786
:1015A000FFF7D2FB20B1EFF3108072B6FEE700BF69
:1015B0000F20CDE9020702A80021CDE904770697A4
:1015C000FFF7DCFA20B1EFF3108072B6FEE700BF40
:1015D00000270C970297306805F5CA3440F00100E7
:1015E00030603068032100F00100029002980297F9
:1015F0003068002240F0020030603068032600F0BE
:101600000200029002982046FFF706FA0220089690
:101610000126CDE90A0708A920460996FFF71EF919
:1016200040F27004C2F2000405F53041204640F853
:101630000C1F0121C0F600710B97077680F820700F
:10164000C0E90A17C66180F83070C0E90177C0E9C7
:1016500003774661FEF78EFF20B1EFF3108072B67C
:10166000FEE700BF072008A90C34C1C108A9204625
:10167000FEF7E0FE20B1EFF3108072B6FEE700BF88
:101680002020029040F2C4000021C2F200004FF07E
:10169000804243F67F6340F2E7370B91CDE90911B1
:1016A0000391C0E90023C0E9021701618161FFF7DE
:1016B00065FD28B1EFF3108072B600BFFEE700BFF2
:1016C0004FF48050089040F2C400C2F2000008A914
:1016D000FFF74EFE20B1EFF3108072B6FEE700BFB9
:1016E00040F2C400C2F2000002A9FFF7FFFC28B1DB
:1016F000EFF3108072B600BFFEE700BF2046FFF791
:101700001BF840F2C400C2F20000FFF7EFFD00BF7B
:10171000FEE7F1EE100A4FF6FF71C0F2C03120EA89
:10172000010040F04070E1EE100A70470000000038
:101730000000000001020304060708096017000802
:101740000000002010000000D00100087017000801
:101750001000002000070000EC010008000000005D
:1017600001000000100000000024F4000000000050
:040000050800019559
:00000001FF
