:020000040800F2
:10000000600700203D020008B1270008D124000845
:10001000AD27000865060008ED2700080000000075
:10002000000000000000000000000000B9270008E8
:100030006906000800000000B5270008BD27000879
:10004000570200085702000857020008570200082C
:10005000570200085702000857020008570200081C
:10006000570200085702000857020008570200080C
:1000700057020008570200085702000857020008FC
:10008000570200085702000857020008000000004D
:1000900000000000000000000000000057020008FF
:1000A00057020008570200085702000857020008CC
:1000B000D5270008E127000857020008570200086A
:1000C00057020008570200085702000857020008AC
:1000D00057020008570200085702000800000000FD
:1000E00057020008570200085702000800000000ED
:1000F000000000000000000000000000570200089F
:1001000000000000570200085702000857020008CC
:1001100000000000000000000000000000000000DF
:10012000570200085702000857020008570200084B
:10013000570200080000000000000000000000005E
:10014000000000000000000000000000570200084E
:10015000570200085702000857020008570200081B
:1001600057020008570200080000000000000000CD
:10017000000000000000000000000000000000007F
:10018000000000005702000800000000000000000E
:100190005702000800F002F800F040F80AA090E8CA
:1001A000000C82448344AAF10107DA4501D100F032
:1001B00035F8AFF2090EBAE80F0013F0010F18BFBF
:1001C000FB1A43F001031847582B0000782B00005E
:1001D000103A24BF78C878C1FAD8520724BF30C873
:1001E00030C144BF04680C60704700000023002445
:1001F00000250026103A28BF78C1FBD8520728BF37
:1002000030C148BF0B6070471FB502F063FD9DE829
:10021000030000F021F91FBD10B510BD00F0A0F9DA
:100220001146FFF7F1FF02F0EBFB00F0BEF903B45B
:10023000FFF7F2FF03BC00F0EFF900000948804728
:1002400009480047FEE7FEE7FEE7FEE7FEE7FEE7B8
:10025000FEE7FEE7FEE7FEE704480549054A064BD0
:1002600070470000C12700089501000860010020C8
:1002700060070020600300206003002070B5064680
:1002800000F0CEF8056806F10B0020F00704B44238
:100290009CBF002070BD2B466A68BAB11068A042AE
:1002A00010D304F1080188423CBF5068586007D35E
:1002B0005168101941601168091B01605860146091
:1002C000101D70BD13465268002AE7D1214628460A
:1002D00000F0AEF80028DED170BD53EA020C00F049
:1002E00069802DE9F04B4FF00006002B1FBFB3FAD9
:1002F00083F503FA05F424FA05F65E4012BF1643AF
:10030000B2FA82F502FA05F4C5F120051EBF22FA01
:1003100005FC44EA0C04203556EA044C4FEA144428
:1003200018BF641C4FF000084FF00009904271EBB9
:10033000030C39D3002919BFB1FA81F701FA07F686
:10034000B0FA80F700FA07F6C7F120071EBF20FABF
:1003500007FC46EA0C062037B6FBF4FCA7EB0507C2
:10036000103F07F01F0BCBF120062CFA06F60CFA13
:100370000BFB44BFB3460026202FA4BF5E464FF0C0
:10038000000B5BEA060C08BF4FF0010B19EB0B09E1
:1003900048EB0608ABFB027C06FB02CC0BFB03CC54
:1003A000C01B71EB0C01C1E70B46024641464846B3
:1003B000BDE8F08B13B5084318BF4FF0FF3001467E
:1003C000AFF30080BDE81C4070474FF0000200B55D
:1003D000134694469646203922BFA0E80C50A0E868
:1003E0000C50B1F12001BFF4F7AF090728BFA0E816
:1003F0000C5048BF0CC05DF804EB890028BF40F8E2
:10040000042B08BF704748BF20F8022B11F0804F23
:1004100018BF00F8012B7047704770477047000005
:1004200000487047180000207047704770477047B9
:1004300038B504460A4600206946AFF3008000281C
:1004400008BF38BD02460099204600F067F8012039
:1004500038BD012000F07CB8F8B5AFF30080054648
:1004600000200C46102000BF0646A819A0420DD956
:10047000324669460020AFF30080070008BF00F055
:1004800067F80098A04218BF0546C419FFF7C8FFD7
:1004900005600746F01D20F007004619284600F0C9
:1004A0000AF8B44208BFF8BDA21B31463868BDE85F
:1004B000F84000F033B800210160C0E90110704736
:1004C0001020704770B50446051FFFF7A9FF0068AC
:1004D000002C14BF446870BD002C18BFAC423CBF58
:1004E00020466468F8D301680A18AA4218BF45601C
:1004F00003D12A6805461144016028684119A142C8
:100500001CBF6C6070BD6168696021680844286028
:1005100070BD00000048704710000020034640688E
:100520008C46002818BF88423CBF03464068F8D379
:1005300018681844884207D00CF1030020F0070027
:10054000001D411A521A0146081D0A60FFF7BABF82
:1005500010B500F039F8BDE8104000F02FB8704732
:100560007546FFF7D7FFAE4605006946534620F0B3
:100570000700854618B020B5FFF76EFEBDE82040A5
:100580004FF000064FF000074FF000084FF0000B4F
:10059000AC46ACE8C009ACE8C009ACE8C009ACE8BE
:1005A000C00921F007018D46704710B50446AFF32E
:1005B00000802046BDE81040FFF739BE002801D07A
:1005C00000F02AB87047000010B5012805D00021BE
:1005D00003A000F027F8012010BD09A1F8E70000F2
:1005E00053494752544D454D3A204F7574206F661C
:1005F0002068656170206D656D6F72790000000084
:100600003A2048656170206D656D6F727920636F67
:10061000727275707465640001491820ABBEFEE704
:100620002600020070B505460C460A2000E06D1C4D
:1006300000F011F835B128780028F8D102E0641CE8
:1006400000F009F814B120780028F8D1BDE8704016
:100650000A20AFF3008008B569468DF8000003203A
:10066000ABBE08BDFEE70000704700002DE9F04F6B
:1006700082B000F13E4241F2000502F1FF77C4F280
:10068000020507224FEAB726A84208BF0422042E1B
:1006900038BF4FEAB7224FF0010A002400274FF07D
:1006A0000008009208E000BF023708F10108202F7F
:1006B00004F1040400F0B4800E680AFA08F916EA9E
:1006C000090FF1D0D1F804A00AF0030BABF1010639
:1006D000012E17D80322866802FA07FECA6826EAA6
:1006E0000E06BA40324382604268CAF3001522EA1D
:1006F000090205FA08F54FEA480C6FEA0E062A438C
:1007000042600BE00322BA40D643BBF1030FBC4664
:1007100004D1BC464FF0030B22E000BFC2688D68D5
:10072000324005FA0CF52A43BBF1020FC26017D123
:100730006FF0030202EA5802024404F01C030F2582
:10074000D2F820E005FA03FA0D692EEA0A0E05FA3E
:1007500003F343EA0E031362D1F804A00AF0030B7B
:1007600002680BFA0CF332401A431AF4403F4FF080
:10077000010A026098D0002243F644030192C4F2B9
:1007800002031A6843F6004E42F480421A601A6867
:10079000C4F2010E02F480420192019A28F0030291
:1007A0004FF6084C7244CFF6FF7C52F80C3004F040
:1007B0000C060F25B540AB43009D05FA06F6334302
:1007C00042F80C30DEF808204B6842EA090643F68E
:1007D0000C4CDD0258BF22EA0906CEF80860C4F2CC
:1007E000010CDCF800209D0242EA090658BF22EA0B
:1007F0000906CCF80060DEF804209D0342EA0906F1
:1008000058BF22EA0906CEF80460DEF80020DB03B8
:1008100042EA090658BF22EA0906CEF8006043E71B
:1008200002B0BDE8F08F0000002A08BF0904816112
:100830007047000040F25C10C2F200000068704790
:1008400040F2000040F25C11C2F20000C2F200016E
:1008500000780A68104408607047000080B543F6CD
:100860000040C4F20200016841F4007101600168B7
:1008700041F480610160016841F4807101600320EE
:1008800000F084F80F2000F005F800F027F80020B1
:1008900080BD000070B540F20006C2F2000640F2D2
:1008A00008013278C2F200014FF47A730968B3FB91
:1008B000F2F20446B1FBF2F1084600F019FB0F2CEE
:1008C0004FF0010508D838B94FF0FF30214600221B
:1008D000002500F02FF87460284670BD82B000201B
:1008E00043F640010190C4F202014A6842F480429A
:1008F0004A604A6802F480420192019A00900868B6
:1009000040F080500860086800F080500090009827
:1009100002B07047002848BF704700F01F01012255
:1009200002FA01F14EF200124009CEF2000242F842
:100930002010704710B54EF60C5CCEF2000CDCF8BF
:100940000030C3F3022E8EF00704042C28BF0424C9
:10095000BEF103034FF0FF3E0EFA04F438BF00234C
:10096000A14399400EFA03F39A43114300F00F029A
:10097000043A624409010C3200F16043B0F1FF3FD8
:10098000C8BF03F56442117010BD00004EF60C5153
:10099000CEF200010A684FF6FF031A4060F30A2204
:1009A00042F0806040F0FD70086070472DE9F04132
:1009B000002800F08B8043F60808C4F202080446C1
:1009C000D8F8F8030D4600F00700884207D288F8EF
:1009D000F853D8F8F80300F00700A84276D1206851
:1009E000810717D5410705D5D8F8001041F4E0512B
:1009F000C8F80010010705D5D8F8001041F460418F
:100A0000C8F80010D8F80010A26821F0F0011143D6
:100A1000C8F80010C0073FD1D8F8F80300F007006D
:100A2000A84207D988F8F853D8F8F80300F007006F
:100A3000A8424BD12068410707D5D8F80010E268DA
:100A400021F4E0511143C8F80010000708D5D8F888
:100A50000000216920F4604040EAC100C8F80000AD
:100A600000F054F8D8F8001042F6EE42C1F303113A
:100A7000C0F60002515C40F2080220FA01F140F297
:100A80000400C2F200000068C2F200021160FFF729
:100A900001FF0020BDE8F0816068811E022907D2B5
:100AA00058F8081C89015CBF0120BDE8F08111E005
:100AB000012807D158F8081C89035CBF0120BDE854
:100AC000F08107E058F8081C890703D40120BDE82D
:100AD000F08100BFD8F8001021F003010843C8F8E6
:100AE0000000FFF7A7FE064641F28837D8F800005D
:100AF000616800F00C00B0EB810F8DD0FFF79AFE1B
:100B0000801BB842F2D90320BDE8F08110B543F64E
:100B10000404C4F20204606800F00C0008280BD042
:100B2000042819BF42F20040C0F2F40047F640002A
:100B3000C0F27D1010BD00BF206821682368490203
:100B400047F64001C0F27D1100F03F02C3F3881068
:100B50005CBF42F20041C0F2F401A1FB000100239E
:100B6000FFF7BBFB21680222C1F3014102EB410107
:100B7000B0FBF1F010BD00002DE9F04182B000287B
:100B80006AD00446007843F60006C007C4F20206A5
:100B90000BD0B06800F00C00042840F0A180306851
:100BA000800302D56068002856D0207880071AD5C7
:100BB000B06810F00C0F09D0B06800F00C000828E5
:100BC00040F0A8807068400200F1A480306880077F
:100BD00002D5E06801283FD13068216920F0F80093
:100BE00040EAC10030602078000739D420784007FF
:100BF0004ED4A5695DB3B06800F00C00082840F041
:100C0000BD80012D28D07068E16900F480028A421D
:100C100022D1216A00F03F028A421DD147F6C071FD
:100C2000626A0140B1EB821F16D1A26A0023CFF69F
:100C3000FF7303EBC23200F440316FF30F029142B5
:100C40000AD1E16A00F07060B0EB016F04D10020BE
:100C500002B0BDE8F08100BF012002B0BDE8F08124
:100C60006069002840F20000C4F2472076D00121DC
:100C7000C0F8801EFFF7DEFD054600BF706F8007DD
:100C8000B4D4FFF7D7FD401B0228F7D9DDE000BF41
:100C9000306C10F080580AD100200190306C40F088
:100CA00080503064306C00F080500190019847F221
:100CB0000007C4F200073868C00541D4386840F422
:100CC00080703860FFF7B6FD054600BF3868C00584
:100CD00036D4FFF7AFFD401B0228F7D9B5E000BFBF
:100CE000B06800F00C00082803D1706840023FF59E
:100CF00056AF6068B0F5803F07D0B0F5A02F40F048
:100D00008D80306840F480203060306840F480305E
:100D100030608DE0E068002852D00020C4F2472007
:100D200001210160FFF786FD054600BF306880079E
:100D30003FF552AFFFF77EFD401B0228F6D984E055
:100D4000A068012805D005284ED1306F40F004007E
:100D50003067306F40F0010030674FE00021C0F88D
:100D6000801EFFF767FD0546706F80077FF53EAF79
:100D7000FFF760FD401B0228F6D966E00027C4F2A9
:100D8000472700203866FFF755FD022D05460BD199
:100D9000306880015ED5FFF74DFD401B02284FF003
:100DA0000300F5D954E700BF306880017FF54FAFED
:100DB000FFF740FD401B02284FF00300F4D947E73E
:100DC0000020C4F2472000210160FFF733FD0546F3
:100DD000306880077FF507AFFFF72CFD401B022826
:100DE0004FF00300F4D933E7316F002821F00101FF
:100DF0003167316F21F0040131674DD0FFF71AFDE3
:100E0000054641F2883700BF306F800756D4FFF7A0
:100E100011FD401BB842F7D917E000BF3168002828
:100E200021F480313160316821F4802131604FD06C
:100E3000FFF700FD054600BF306880033FF5B5AE03
:100E4000FFF7F8FC401B6428F6D9032002B0BDE888
:100E5000F08100BF04F11C052FCD08430021CFF61F
:100E6000FF7140EA821001EBC3316FF30F0140EADA
:100E700005600843706001203866FFF7DBFC04461C
:100E8000306880013FF5E3AEFFF7D4FC001B022879
:100E90004FF00300F4D9DBE6FFF7CCFC054641F246
:100EA000883700BF306F800708D5FFF7C3FC401BB1
:100EB000B8424FF00300F5D9CAE600BFB8F1000F01
:100EC0007FF497AE306C20F08050306491E600BF24
:100ED000FFF7B0FC054600BF306880037FF565AEC4
:100EE000FFF7A8FC401B64284FF00300F4D9AFE6DD
:100EF000411E0020B0EB116F1CBF012070474EF265
:100F00001002CEF2000251604EF62351CEF20001E3
:100F1000F0230B700721906011607047704700004C
:100F20007047000010B590F83C20012A4FF00202F3
:100F30003ED080F83D200268D2F804E0D2F808C024
:100F40000C682EF07003234340F6FF34C4F2000413
:100F5000A242536010DCB2F1804F1ED040F2004339
:100F6000C4F200039A4218D040F60003C4F2000312
:100F70009A4212D016E000BF40F60043C4F20003CC
:100F80009A420AD044F20003C4F201039A4204D008
:100F90000023C4F201039A4204D149682CF0800373
:100FA000194391600121002280F83D1080F83C2017
:100FB000104610BD002804BF0120704710B504463C
:100FC00090F83D0028B9002084F83C00204600F04D
:100FD0008FF8022084F83D00206840F2FF73026819
:100FE000C4F2000340F2000C9842C4F2010C1DDD73
:100FF00040F60001C4F20001884220D060451ED0B6
:1010000040F60041C4F20001884218D04FF6FF714B
:10101000C4F2000188421CDC984225DCB0F1804F0C
:101020003AD040F20041C4F2000133E0B0F1804F09
:1010300005D040F20041C4F200018842E6D1A16827
:1010400022F070020A434FF6FF71C4F20001884299
:10105000E2DD44F2FF31C4F20101884210DC604558
:101060001AD044F2000113E040F60001C4F200017E
:10107000884211D040F60041C4F200010AE000BFEE
:1010800044F60001C4F20101884205D044F2004157
:10109000C4F20101884203D1216922F440720A435B
:1010A000A36922F08001D4F804E0E26819436045A6
:1010B0000160C262C0F828E002D16169CCF830104A
:1010C00001214161002084F8461084F83E1084F824
:1010D0003F1084F8401084F8411084F8421084F8DE
:1010E000431084F8441084F8451084F83D1010BD76
:1010F00080B586B0006840F60041C4F20001884225
:101100003CD040F20041C4F20001884248D0B0F126
:10111000804F42D1002043F640010190C4F2020109
:101120000A6842F001020A600A6802F001020192B4
:10113000019A019051F8102C42F0010241F8102C54
:1011400051F8101C022201F00101019101990121C5
:10115000CDE90220CDE9040100200191C4F2020092
:1011600001A9FFF783FA1C2000210022FFF7E2FB10
:101170001C20FFF7CFFB06B080BD00BF0020019010
:1011800043F64000C4F20200016841F0080101602A
:10119000006800F008000190019806B080BD00BF13
:1011A0000020019043F64000C4F2020001680022D2
:1011B00041F0020101600068002100F0020001908E
:1011C00001981D20FFF7B6FB1D2006B0BDE880404A
:1011D000FFF7A0BB90F83D1001291CBF012070470C
:1011E000022180F83D10006840F6FF31C4F2000192
:1011F00088420FDCB0F1804F1DD040F20041C4F2B4
:101200000001884217D040F60001C4F20001884274
:1012100011D017E040F60041C4F2000188420AD024
:1012200044F20001C4F20101884204D00021C4F25A
:101230000101884206D1816801F00701062904BF37
:1012400000207047016841F00101016000207047F3
:1012500090F83D1001291CBF01207047022180F841
:101260003D10006840F6FF32C168C4F200029042AF
:1012700041F00101C1600FDCB0F1804F1DD040F2A0
:101280000041C4F20001884217D040F60001C4F2C8
:101290000001884211D017E040F60041C4F200017D
:1012A00088420AD044F20001C4F20101884204D00D
:1012B0000021C4F20101884206D1816801F00701D2
:1012C000062904BF00207047016841F00101016058
:1012D000002070470146006841F21113026A1A4269
:1012E00004D00122002081F83D207047026A40F2BC
:1012F00044431A42F5D1026822F001020260012241
:10130000002081F83D2070470146006841F211132A
:10131000C26822F00102C260026A1A4204D00122AD
:10132000002081F83D207047026A40F244431A428F
:10133000F5D1026822F0010202600122002081F84A
:101340003D20704780B590F83C20012A4FF0020202
:1013500000F0C28080F83D20D0F800C04FF67772D0
:10136000DCF8083023EA0202CCF808200B684F2B87
:1013700028DC1F2B44DD202B45D0302B43D0402BC5
:1013800040F0AC80D1F804E0C968DCF82030DCF82B
:10139000202022F00102CCF82020DCF8182022F0D6
:1013A000F00242EA011123F00A0242EA0E02CCF8EE
:1013B0001810CCF82020DCF8081041F0470121F08B
:1013C000300180E06F2B27DDB3F5005F48D0B3F527
:1013D000805F7AD0702B40F08180D1E901E3C96849
:1013E000DCF8082043EA0E0322F47F4243EA01219D
:1013F0001143CCF80810DCF8081041F0770162E0E6
:101400000BB1102B6AD1DCF8081021F070011943E0
:1014100041F0070157E000BF502B35D0602B5DD164
:10142000D1F804E0C968DCF8203023F01003CCF8D0
:101430002030DCF81830DCF8202023F4704322F050
:10144000A00243EA013142EA0E12CCF81810CCF89F
:101450002020DCF8081041F0670121F0100132E093
:10146000D1E901E3C968DCF8082043EA0E0322F45D
:101470007F4243EA01211143CCF80810DCF8081040
:1014800041F480411FE000BFD1F804E0C968DCF8F6
:101490002030DCF8202022F00102CCF82020DCF8FB
:1014A000182022F0F00242EA011123F00A0242EA77
:1014B0000E02CCF81810CCF82020DCF8081041F00F
:1014C000570121F02001CCF808100022012180F8FA
:1014D0003D10002180F83C10104680BD0122F5E748
:1014E000B0B50068B0F1804F18BFB0BD40F27004D5
:1014F000C2F200042069002800F0E8802178002969
:1015000000F0E8802178012940F0E18040F2CC0031
:10151000C2F200000168486BA060A0686268821A8D
:101520000020B2F5FA7F4862C0F0E28040F2144138
:10153000C4F202010A6840F6180522F040020A606F
:101540000A68C4F2020522F020024FF47F030A6009
:101550002B60C1F800040A684FF0300C42F08002A2
:101560000A600A684FF0A00E22F080020A600A6842
:1015700022F040020A600A6822F020020A6010226B
:101580002B60C1F800240A6842F080020A600A68F1
:1015900022F080020A600A6842F020020A600A68AB
:1015A00022F040020A602B60C1F800C40A6842F0D1
:1015B00080020A600A6822F080020A60C1F8000412
:1015C0000A6842F080020A600A6822F080020A601B
:1015D0000A6842F020020A600A6822F040020A60AB
:1015E0002B60C1F800C40A6842F080020A600A68F1
:1015F00022F080020A60C1F800E40A6842F080022A
:101600000A600A6822F080020A600A6842F020023A
:101610000A600A6822F040020A602B60C1F800C428
:101620000A6842F080020A600A6822F080020A60BA
:10163000C1F800040A6842F080020A600A6822F0D9
:1016400080020A600A6842F020020A600A6822F0FA
:1016500040020A602B60C1F800C40A6842F08002B0
:101660000A600A6822F080020A60C1F800E40A6891
:1016700042F080020A600A6822F080020A600A686A
:1016800042F020020A600A6822F040020A602B60E1
:10169000C1F800C40A6842F080020A600A6822F0B9
:1016A00080020A60C1F800040A6842F080020A6001
:1016B0000A6822F080020A606169486240F21411EF
:1016C000C2F20001096848622EE000BF002001302C
:1016D0002061B0BD40F2CC01C2F2000109680022D5
:1016E0004A6201216260217001302061B0BD00BFFB
:1016F000E06801280CD10020E06004F11400FFF73D
:10170000E9FD40F21410C2F20000FFF7FDFD0BE00E
:101710000120E06004F11400FFF75CFD40F21410BA
:10172000C2F20000FFF794FD00202070606060604E
:10173000206901302061B0BDF0B590F83C30012B3C
:1017400004BF0220F0BD4FEAB202032A2CD8DFE822
:1017500002F003314F6F00BF0368D1E900C5D1F833
:101760000CE01A6A40F6FF3722F001021A621A46AC
:1017700052F8186F1C6AC4F20007BB4200F37E8067
:10178000B3F1804F00F08B8040F20047C4F20007B5
:10179000BB4200F0848040F60007C4F20007BB4261
:1017A00000F07D8096E000BF0121002280F83C20FF
:1017B0000846F0BD0368D1E900E6D1E902C11A6A22
:1017C000360222F010021A621A4652F8184F4FF2EF
:1017D000FF071D6ABE4324F4734461F30F3646EAE3
:1017E000040125F0A0040EF00A0744EA07173CE0C4
:1017F0000768D1E900C5D1E902313A6A61F30715FA
:1018000022F480723A623A4652F81C4F3E6A24F043
:10181000F30445EA040126F420660CF00A0546EAC2
:10182000052611603E62116821F00C01116047E04D
:101830000368D1E900E6D1E902C11A6A360222F44E
:1018400080521A621A4652F81C4F4FF2FF071D6A67
:10185000BE4324F4734461F30F3646EA040125F4D1
:1018600020440EF00A0744EA073711601F6211682E
:101870004FEA0C2321F44061116021E040F600475B
:10188000C4F20007BB420AD044F20007C4F20107C9
:10189000BB4204D00027C4F20107BB421AD126F094
:1018A0000306354324F00A070CF00A066EF3071509
:1018B00037449D611F629F6927F00C079F618B6809
:1018C0001168194311600021002280F83C2008466D
:1018D000F0BD00BF46F00105E4E70000002804BFAA
:1018E0000120704710B5044690F83D0028B900204B
:1018F00084F83C00204600F08FF8022084F83D0078
:10190000206840F2FF730268C4F2000340F2000C4A
:101910009842C4F2010C1DDD40F60001C4F2000142
:10192000884220D060451ED040F60041C4F200013C
:10193000884218D04FF6FF71C4F2000188421CDCC7
:10194000984225DCB0F1804F3AD040F20041C4F219
:10195000000133E0B0F1804F05D040F20041C4F205
:1019600000018842E6D1A16822F070020A434FF6D6
:10197000FF71C4F200018842E2DD44F2FF31C4F29B
:101980000101884210DC60451AD044F2000113E0E6
:1019900040F60001C4F20001884211D040F6004137
:1019A000C4F200010AE000BF44F60001C4F20101E4
:1019B000884205D044F20041C4F20101884203D1BB
:1019C000216922F440720A43A36922F08001D4F80D
:1019D00004E0E268194360450160C262C0F828E093
:1019E00002D16169CCF8301001214161002084F8F6
:1019F000461084F83E1084F83F1084F8401084F8B4
:101A0000411084F8421084F8431084F8441084F89C
:101A1000451084F83D1010BD7047000051B30829EF
:101A20000AD0042919BF00F1410200F1450300F179
:101A30003F0200F1430303E000F1400200F14403E0
:101A400012781B78012A4FF0010208BF012B01D048
:101A5000104670470222082922D004292CD180F890
:101A60003F2080F843204FEAB103032B4FF00102DF
:101A7000EED82BE090F83E2090F84230012A4FF04B
:101A8000010208BF012BE3D1022280F83E2080F83A
:101A900042204FEAB103032B4FF00102D8D815E0E2
:101AA00080F8402080F844204FEAB103032B4FF028
:101AB0000102CDD80AE000BF80F8412080F845201F
:101AC0004FEAB103032B4FF00102C1D842F6005C8C
:101AD0000068C0F6000C5CF823C0C36801F01F0169
:101AE00043EA0C03C360036A02FA01F123EA01022C
:101AF0000262026A114340F6FF32C4F200029042D1
:101B000001620FDCB0F1804F1DD040F20041C4F201
:101B10000001884217D040F60001C4F2000188425B
:101B200011D017E040F60041C4F2000188420AD00B
:101B300044F20001C4F20101884204D00021C4F241
:101B40000101884206D1816801F00701062904BF1E
:101B5000002070470168002241F001010160104639
:101B60007047000010B5016804460869800744BF4B
:101B7000C8685FEA807039D40869400744BFC86804
:101B80005FEA40703ED40869000744BFC8685FEA56
:101B9000007045D40869C00644BFC8685FEAC060E9
:101BA0004AD40869C0071CBFC8685FEAC07051D139
:101BB0000869000644BFC8685FEA006052D408693B
:101BC000400644BFC8685FEA406053D40869800695
:101BD00046BFC8685FEA806010BD6FF020022046F3
:101BE0000A61BDE81040FFF79BB900BF6FF002002B
:101BF0000861012020778869800743D02046FFF7DD
:101C00006FFC45E06FF004000861022020778869CE
:101C100010F4407F40D02046FFF762FC42E000BF56
:101C20006FF00800086104202077C86980073DD064
:101C30002046FFF755FC3FE06FF0100008610820D8
:101C40002077C86910F4407F3AD02046FFF748FC5F
:101C50003CE000BF6FF001000861204600F03EF854
:101C60002168A5E76FF0800008612046FFF756F96C
:101C70002168A4E76FF040000861204600F026FCD0
:101C80002168A3E7204600F025F8204600F024F85C
:101C90002168002020776FE7204600F01BF82046DF
:101CA00000F01AF82168002020776CE7204600F049
:101CB00011F8204600F010F821680020207769E72D
:101CC000204600F007F8204600F006F821680020C2
:101CD000207766E770470000704700002DE9F04F5D
:101CE00083B0006840F20041C4F20001884203D092
:101CF00003B0BDE8F08F00BF40F21446C4F2020604
:101D0000306840F6180B20F0400030603068C4F2B4
:101D1000020B20F0200030604FF47F000021CBF850
:101D20000000C6F80014316844F6D35241F0800137
:101D300031603168C1F2620221F0800131603168A6
:101D400021F040013160316821F020013160102123
:101D5000CBF80000C6F80014316841F08001316012
:101D6000316821F08001316040F27001C2F200015F
:101D70004969496AA1FB02239A094FF47A7302FB6D
:101D800013131FFA83F84CF6CD43CCF6CC43A8FBD3
:101D9000033948F68903C8F68803A2FB03377B0999
:101DA0001B01A3EB57134EF66027B942A2EB830A3F
:101DB00020D2316841F020013160316821F04001CA
:101DC0003160CBF800003020C6F80004306840F0E5
:101DD00080003060306820F0800030600020C6F85D
:101DE0000004306840F080003060306820F08000EF
:101DF000306028E14BF27320C4F2E750A1FB0001F0
:101E0000880B41F259710024CDF2B71142F20F72E2
:101E1000034600BF0A2B12D3642B0DD3B3F57A7F90
:101E20000CD3A3FB017593424FEA553304F104042C
:101E3000F0D8013C03E000BF013400E0023400F0C0
:101E4000D7FC611C032C01F0030C05D20021BCF16E
:101E5000000F40F0A780F6E021F00301CDE90198E2
:101E6000C1F1000E00F101086FF003034FF47F0190
:101E7000376808EB030447F02007376037680433FE
:101E800027F040073760CBF80010E278277902F09E
:101E9000F009C6F800943568120145F080053560F8
:101EA0003568D2B225F080053560C6F80024326866
:101EB00042F080023260326822F080023260326882
:101EC00042F020023260326822F04002326007F0B5
:101ED000F002CBF80010C6F80024326842F080020D
:101EE0003260326822F0800232603A01D2B2C6F823
:101EF0000024326842F080023260326822F08002B0
:101F000032606279356845F020053560356825F026
:101F10004005356002F0F005CBF80010C6F800541B
:101F20003568120145F0800535603568D2B225F07C
:101F300080053560C6F80024326842F080023260C5
:101F4000326822F080023260A279346844F02004C2
:101F50003460346824F04004346002F0F004CBF8BC
:101F60000010C6F800443468120144F08004346064
:101F70003468D2B224F080043460C6F80024326899
:101F80000EEB030442F0800232603268043422F027
:101F9000800232607FF46CAFDDE90198191DBCF15D
:101FA000000F50D0435C326803F0F00742F020028B
:101FB000326032681B0122F0400232604FF47F022F
:101FC000CBF80020C6F800743768DBB247F0800712
:101FD00037603768BCF1010F27F080073760C6F81B
:101FE0000034336843F080033360336823F08003A8
:101FF000336028D0084441783368BCF1020F43F0C5
:1020000020033360336823F040033360CBF80020B3
:1020100001F0F002C6F8002432684FEA011142F0E4
:10202000800232603268C9B222F080023260C6F8A3
:102030000014316841F080013160316821F0800185
:10204000316040F0278230684FF47F0540F0200077
:10205000306030684FEAD90920F04000306030200D
:10206000CBF80050C6F800043168BAF1000F41F017
:1020700080013160316821F0800131604FF0A001B2
:10208000C6F80014316841F080013160316821F0F8
:102090008001316074D000245046BAF1090F88BF26
:1020A0004FF0FF3400F0A4FB01783268BAF1090F59
:1020B00042F020023260326822F04002326001F0C9
:1020C000F002CBF80050C6F8002432684FEA011144
:1020D00042F0800232603268C9B222F0800232607F
:1020E000C6F80014316841F080013160316821F098
:1020F0008001316002D80121002960D14278316825
:1021000002F0F00341F0200131603168120121F04A
:10211000400131604FF47F01CBF80010C6F8003465
:102120003368D2B243F080033360336823F0800316
:102130003360C6F800243268E30742F08002326060
:10214000326822F08002326039D18078326842F001
:1021500020023260326822F040023260CBF8001078
:1021600000F0F001C6F800143168000141F0800170
:1021700031603168C0B221F08001316015E000BFEC
:10218000316841F020013160316821F04001316057
:10219000CBF80050C6F80004306840F08000306092
:1021A000306820F0800030600020C6F800043068FD
:1021B00040F080003060306820F08000306030688F
:1021C000B8F1090F40F020003060306820F0400086
:1021D00030604FF47F00CBF800004FF03000C6F8BD
:1021E0000004306840F080003060306820F08000EB
:1021F00030604FF0A000C6F80004306840F0800066
:102200003060306820F08000306005D8484603B068
:10221000BDE8F04F00F0ECBAB9F10A0F02D2002489
:102220000BE000BFB9F1640F02D2012405E000BF4A
:102230000324B9F57A7F38BF0224484600F0D8FA63
:10224000611C032C01F0030C06D20021BCF1000F2D
:1022500040F0A5804CE500BF01F00401C1F1000E83
:1022600000F101086FF003034FF47F04316841F07F
:1022700020013160376808EB030127F04007376021
:10228000CBF80040CA780F7902F0F005C6F8005488
:102290003568120145F0800535603568D2B225F009
:1022A00080053560C6F800243268043342F08002AD
:1022B0003260326822F080023260326842F02002DE
:1022C0003260326822F04002326007F0F002CBF850
:1022D0000040C6F80024326842F080023260326862
:1022E00022F0800232603A01D2B2C6F8002432688D
:1022F00042F080023260326822F0800232604A7915
:10230000356845F020053560356825F040053560B5
:1023100002F0F005CBF80040C6F800543568120111
:1023200045F0800535603568D2B225F0800535600E
:10233000C6F80024326842F080023260326822F02F
:10234000800232608979326842F02002326032685D
:1023500022F04002326001F0F002CBF80040C6F8F3
:1023600000243268090142F0800232603268C9B24A
:1023700022F080023260C6F8001431680EEB0302CE
:1023800041F0800131603168043221F08001316018
:102390007FF46CAF191DBCF1000F3FF4A9AC435C96
:1023A000326803F0F00742F02002326032681B010D
:1023B00022F0400232604FF47F02CBF80020C6F8D2
:1023C00000743768DBB247F0800737603768BCF1CC
:1023D000010F27F080073760C6F80034336843F0F8
:1023E00080033360336823F0800333603FF480ACB4
:1023F000084441783368BCF1020F43F02003336096
:10240000336823F040033360CBF8002001F0F00282
:10241000C6F8002432684FEA011142F080023260AF
:102420003268C9B222F080023260C6F80014316806
:1024300041F080013160316821F0800131603FF46A
:1024400057AC8078316841F020013160316821F06B
:10245000400131604FF47F01CBF8001000F0F00133
:10246000C6F800143168000141F080013160316824
:10247000C0B221F080013160C6F80004306840F03D
:1024800080003060306820F08000306003B0BDE82C
:10249000F08F00BF8078316841F0200131603168F1
:1024A00021F0400131604FF47F01CBF8001000F0C3
:1024B000F001C6F800143168000141F0800131607C
:1024C0003168C0B221F08001316088E470470000BB
:1024D000FEE7000010B540F21440C4F202000168AB
:1024E00040F6180421F0400101600168C4F20204C2
:1024F00021F020014FF47F02302301602260C0F8F8
:10250000003401684FF0800C41F0800101600168E7
:102510004FF0000E21F080010160016821F04001C0
:102520000160016821F0200101602260C0F80034E0
:10253000016841F080010160016821F080010160C3
:10254000016821F040010160016821F02001016073
:102550002260C0F80034016841F080010160016828
:1025600021F080010160016821F0400101600168F3
:1025700021F02001016020212260C0F800140368CE
:1025800043F080030360036823F080030360036863
:1025900023F040030360036823F0200303602260FC
:1025A000C0F800140168102341F080010160016847
:1025B00021F080010160016821F0400101600168A3
:1025C00021F0200101602260C0F800C4016841F0E0
:1025D00080010160016821F080010160016821F043
:1025E00040010160016821F0200101602260C0F813
:1025F00000E4016841F080010160016821F0800180
:102600000160016821F040010160016821F02001B2
:1026100001602260C0F800C4016841F080010160DF
:10262000016821F080010160016821F04001016032
:10263000016821F0200101602260C0F800E4016817
:1026400041F080010160016821F0800101600168B2
:1026500021F040010160016821F020010160C021EA
:102660002260C0F80014016841F080010160016837
:1026700021F080010160016821F0400101600168E2
:1026800021F0200101602260C0F800E4016841F0FF
:1026900080010160016821F080010160016821F082
:1026A00040010160016821F0200101606021226089
:1026B000C0F80014016841F080010160016821F058
:1026C00080010160016821F040010160016821F092
:1026D000200101602260C0F80034016841F08001EF
:1026E0000160016821F080010160016821F0400172
:1026F0000160016821F0200101602260C0F800C47F
:10270000016841F080010160016821F080010160F1
:10271000016821F040010160016821F020010160A1
:102720002260C0F800E4016841F0800101600168A6
:1027300021F080010160016821F040010160016821
:1027400021F0200101602260C0F80034016841F0EE
:1027500080010160016821F080010160016821F0C1
:1027600040010160016821F0200101602260C0F891
:1027700000E4016841F080010160016821F08001FE
:102780000160016821F040010160016821F0200131
:102790000160F0212260C0F80014016841F080015E
:1027A0000160016821F08001016010BDFEE70000BA
:1027B000FEE700007047000070470000FEF740B8D9
:1027C0004EF68850CEF20000016841F470010160BD
:1027D0007047000040F2CC00C2F20000FFF7C2B91F
:1027E00040F21410C2F20000FFF7BCB9FEE700008F
:1027F0002DE9F04F03AF83B0C0B3044646F26761E2
:1028000048F21F5944F6D35C48F6AD320320C6F2B5
:102810006661C5F2EB19C1F2620CC6F6DB02234613
:1028200003F10906132E27D353FB01F6B51005EB70
:10283000D6760936132E21D353FB09F6751105EB15
:10284000D6760936132E1AD353FB0CF6B51105EBC9
:10285000D67653FB02F31D13093605EBD373132E03
:1028600000F10400DCD2033809E000BF00204FF083
:102870000008FDF703FDBBE0023800E00138C11D90
:1028800021F00701ADEB010AD546FDF7F7FC002C5E
:102890005AD04CF6CD4B4FF000080121CCF6CC4B72
:1028A00047F8140CA4FB0B32D30803EB8302A4EB10
:1028B000420242F030020A2C0AF8012048D3A3FB5E
:1028C0000B25EA0802EB8202A3EB4202C64642F065
:1028D00030020AEB0103642C5A703DD3A4FB092596
:1028E0006A09A2FB0B5C4FEADC0505EB8505A2EB50
:1028F000450242F03002B4F57A7F9A7032D344F642
:10290000D350C1F26200A4FB0025AA09A2FB0B5020
:10291000C00800EB800041F25976A2EB4000CDF2F6
:10292000B71640F03000A4FB0656D87042F2107083
:102930000EF1040884424FEA563401F10401B1D289
:102940004EF0030211E000BF4FF0000850E000BF5E
:102950004A1E884609E000BF4EF001024EF0020810
:1029600003E000BF4A1C01F1020857F8140C531C85
:10297000032A03F0030C05D20022BCF1000F20D182
:1029800036E000BF23F00301C1F1000E0AEB080995
:10299000C41E002609EB060313F8012C19F80610D3
:1029A00013F8035C13F8023C043E04F8042FB64508
:1029B00004F8011C6370A570ECD17242BCF1000FE9
:1029C00016D0A8EB02011AF80110BCF1010F8154D6
:1029D0000ED0531CA8EB03011AF80110BCF1020F32
:1029E000C15405D00232A8EB02011AF8011081543B
:1029F0000021A7F10C0400F80810A546BDE8F08FEF
:102A000094B043F6300647F20005C4F20206C4F261
:102A10000005FDF723FF06AC201D2C21FDF7D5FC9A
:102A200000270497CDE90277CDE900771297306946
:102A3000022140F080503061306900F080501290E7
:102A400012981297286861F38F302860286800F484
:102A50004040129012980120099010200A902046C0
:102A600006910C97FEF788F820B1EFF3108072B64C
:102A7000FEE700BF0F20CDE9000768460021CDE941
:102A800002770497FDF792FF20B1EFF3108072B642
:102A9000FEE700BF00270A970097306805F5CC34A1
:102AA00040F0010030603068F02100F0010000903B
:102AB000009800973068002240F0040030603068D1
:102AC00000F00400009000980097306840F0020089
:102AD00030603068F02600F0020000900098204638
:102AE000FDF7A2FE05F5CA352846E02100224FF089
:102AF000E008FDF799FE069606AE4FF00109204664
:102B00003146CDE907970997FDF7B0FD28463146D4
:102B1000CDE90689CDE90877FDF7A8FD40F2CC00A4
:102B200048F63713C2F200004FF08041C0F2410373
:102B30000997CDE90777CDE9127743F67F6280E800
:102B40008600C0E903378761FEF734FA20B1EFF35E
:102B5000108072B6FEE700BF4FF48050069040F23E
:102B6000CC00C2F2000006A9FEF7ECFB20B1EFF3A7
:102B7000108072B6FEE700BF40F2CC00C2F2000047
:102B8000FEF7ACFE20B1EFF3108072B6FEE700BF97
:102B900040F2CC00C2F2000012A9FEF7C3F928B13E
:102BA000EFF3108072B600BFFEE700BF0A2000906E
:102BB000012001900F20039040F2CC000025C2F2CA
:102BC0000000694600220295FEF7B6FD20B1EFF342
:102BD000108072B6FEE700BF40F2004440F21410CD
:102BE000C4F20004C2F2000043F67F610922099595
:102BF000CDE90755CDE90055C0E90041C0E90252D1
:102C000005618561FEF7D6F920B1EFF3108072B649
:102C1000FEE700BF4FF48050069040F21410C2F25D
:102C2000000006A9FEF78EFB20B1EFF3108072B60C
:102C3000FEE700BF40F21410C2F200006946FEF742
:102C400071F928B1EFF3108072B600BFFEE700BF44
:102C500004F5006240F27004C2F200042046002134
:102C600040F8142F43F67F624FF0FF330991CDE90E
:102C70000711CDE90011C0E90121C0E903318161EB
:102C8000FEF798F920B1EFF3108072B6FEE700BFAF
:102C90004FF480501434069006A92046FEF752FBEC
:102CA00020B1EFF3108072B6FEE700BF6946204600
:102CB000FEF738F920B1EFF3108072B6FEE700BFDF
:102CC00040F2CC00C2F200000021FEF7A7FEFFF7A1
:102CD00001FCFEE7F1EE100A4FF6FF71C0F2C031C1
:102CE00020EA010040F04070E1EE100A7047000059
:102CF00000000000000001020304060708090000AC
:102D000002000000040000000800000010000000A5
:102D1000FDFFFFFFFBFFFFFFF7FFFFFFEFFFFFFFE1
:102D2000402D00080000002010000000D001000825
:102D3000502D00081000002050070000EC01000892
:102D400001000000100000000024F400000000005A
:040000050800019559
:00000001FF
